{
  "_format": "hh-sol-artifact-1",
  "contractName": "FishervsPirate",
  "sourceName": "contracts/FishervsPirate.sol",
  "abi": [
    {
      "inputs": [
        {
          "internalType": "string",
          "name": "name",
          "type": "string"
        },
        {
          "internalType": "string",
          "name": "symbol",
          "type": "string"
        },
        {
          "internalType": "string",
          "name": "baseUri",
          "type": "string"
        }
      ],
      "stateMutability": "nonpayable",
      "type": "constructor"
    },
    {
      "anonymous": false,
      "inputs": [
        {
          "indexed": true,
          "internalType": "address",
          "name": "owner",
          "type": "address"
        },
        {
          "indexed": true,
          "internalType": "address",
          "name": "approved",
          "type": "address"
        },
        {
          "indexed": true,
          "internalType": "uint256",
          "name": "tokenId",
          "type": "uint256"
        }
      ],
      "name": "Approval",
      "type": "event"
    },
    {
      "anonymous": false,
      "inputs": [
        {
          "indexed": true,
          "internalType": "address",
          "name": "owner",
          "type": "address"
        },
        {
          "indexed": true,
          "internalType": "address",
          "name": "operator",
          "type": "address"
        },
        {
          "indexed": false,
          "internalType": "bool",
          "name": "approved",
          "type": "bool"
        }
      ],
      "name": "ApprovalForAll",
      "type": "event"
    },
    {
      "anonymous": false,
      "inputs": [
        {
          "indexed": true,
          "internalType": "address",
          "name": "minter",
          "type": "address"
        },
        {
          "indexed": false,
          "internalType": "uint256",
          "name": "numberOfTokens",
          "type": "uint256"
        },
        {
          "indexed": false,
          "internalType": "uint256",
          "name": "supply",
          "type": "uint256"
        }
      ],
      "name": "MultipleMint",
      "type": "event"
    },
    {
      "anonymous": false,
      "inputs": [
        {
          "indexed": true,
          "internalType": "address",
          "name": "previousOwner",
          "type": "address"
        },
        {
          "indexed": true,
          "internalType": "address",
          "name": "newOwner",
          "type": "address"
        }
      ],
      "name": "OwnershipTransferred",
      "type": "event"
    },
    {
      "anonymous": false,
      "inputs": [
        {
          "indexed": true,
          "internalType": "address",
          "name": "purchaser",
          "type": "address"
        },
        {
          "indexed": true,
          "internalType": "address",
          "name": "beneficiary",
          "type": "address"
        },
        {
          "indexed": false,
          "internalType": "uint256",
          "name": "value",
          "type": "uint256"
        },
        {
          "indexed": false,
          "internalType": "uint256",
          "name": "idToken",
          "type": "uint256"
        }
      ],
      "name": "TokenPurchase",
      "type": "event"
    },
    {
      "anonymous": false,
      "inputs": [
        {
          "indexed": true,
          "internalType": "address",
          "name": "from",
          "type": "address"
        },
        {
          "indexed": true,
          "internalType": "address",
          "name": "to",
          "type": "address"
        },
        {
          "indexed": true,
          "internalType": "uint256",
          "name": "tokenId",
          "type": "uint256"
        }
      ],
      "name": "Transfer",
      "type": "event"
    },
    {
      "anonymous": false,
      "inputs": [
        {
          "indexed": false,
          "internalType": "uint256",
          "name": "amount",
          "type": "uint256"
        },
        {
          "indexed": false,
          "internalType": "uint256",
          "name": "date",
          "type": "uint256"
        }
      ],
      "name": "WithdrawTime",
      "type": "event"
    },
    {
      "inputs": [
        {
          "internalType": "uint256",
          "name": "_tokenId",
          "type": "uint256"
        },
        {
          "internalType": "string",
          "name": "_tokenURI",
          "type": "string"
        }
      ],
      "name": "_setTokenURI",
      "outputs": [],
      "stateMutability": "nonpayable",
      "type": "function"
    },
    {
      "inputs": [],
      "name": "_tokenPrice",
      "outputs": [
        {
          "internalType": "uint256",
          "name": "",
          "type": "uint256"
        }
      ],
      "stateMutability": "view",
      "type": "function"
    },
    {
      "inputs": [
        {
          "internalType": "address",
          "name": "to",
          "type": "address"
        },
        {
          "internalType": "uint256",
          "name": "tokenId",
          "type": "uint256"
        }
      ],
      "name": "approve",
      "outputs": [],
      "stateMutability": "nonpayable",
      "type": "function"
    },
    {
      "inputs": [
        {
          "internalType": "address",
          "name": "owner",
          "type": "address"
        }
      ],
      "name": "balanceOf",
      "outputs": [
        {
          "internalType": "uint256",
          "name": "",
          "type": "uint256"
        }
      ],
      "stateMutability": "view",
      "type": "function"
    },
    {
      "inputs": [],
      "name": "baseURI",
      "outputs": [
        {
          "internalType": "string",
          "name": "",
          "type": "string"
        }
      ],
      "stateMutability": "view",
      "type": "function"
    },
    {
      "inputs": [],
      "name": "flipSaleState",
      "outputs": [],
      "stateMutability": "nonpayable",
      "type": "function"
    },
    {
      "inputs": [
        {
          "internalType": "uint256",
          "name": "tokenId",
          "type": "uint256"
        }
      ],
      "name": "getApproved",
      "outputs": [
        {
          "internalType": "address",
          "name": "",
          "type": "address"
        }
      ],
      "stateMutability": "view",
      "type": "function"
    },
    {
      "inputs": [],
      "name": "getBalance",
      "outputs": [
        {
          "internalType": "uint256",
          "name": "",
          "type": "uint256"
        }
      ],
      "stateMutability": "view",
      "type": "function"
    },
    {
      "inputs": [
        {
          "internalType": "address",
          "name": "owner",
          "type": "address"
        },
        {
          "internalType": "address",
          "name": "operator",
          "type": "address"
        }
      ],
      "name": "isApprovedForAll",
      "outputs": [
        {
          "internalType": "bool",
          "name": "",
          "type": "bool"
        }
      ],
      "stateMutability": "view",
      "type": "function"
    },
    {
      "inputs": [
        {
          "internalType": "uint256",
          "name": "tokensNumber",
          "type": "uint256"
        }
      ],
      "name": "mintToken",
      "outputs": [],
      "stateMutability": "nonpayable",
      "type": "function"
    },
    {
      "inputs": [],
      "name": "name",
      "outputs": [
        {
          "internalType": "string",
          "name": "",
          "type": "string"
        }
      ],
      "stateMutability": "view",
      "type": "function"
    },
    {
      "inputs": [],
      "name": "owner",
      "outputs": [
        {
          "internalType": "address",
          "name": "",
          "type": "address"
        }
      ],
      "stateMutability": "view",
      "type": "function"
    },
    {
      "inputs": [
        {
          "internalType": "uint256",
          "name": "tokenId",
          "type": "uint256"
        }
      ],
      "name": "ownerOf",
      "outputs": [
        {
          "internalType": "address",
          "name": "",
          "type": "address"
        }
      ],
      "stateMutability": "view",
      "type": "function"
    },
    {
      "inputs": [],
      "name": "renounceOwnership",
      "outputs": [],
      "stateMutability": "nonpayable",
      "type": "function"
    },
    {
      "inputs": [
        {
          "internalType": "address",
          "name": "from",
          "type": "address"
        },
        {
          "internalType": "address",
          "name": "to",
          "type": "address"
        },
        {
          "internalType": "uint256",
          "name": "tokenId",
          "type": "uint256"
        }
      ],
      "name": "safeTransferFrom",
      "outputs": [],
      "stateMutability": "nonpayable",
      "type": "function"
    },
    {
      "inputs": [
        {
          "internalType": "address",
          "name": "from",
          "type": "address"
        },
        {
          "internalType": "address",
          "name": "to",
          "type": "address"
        },
        {
          "internalType": "uint256",
          "name": "tokenId",
          "type": "uint256"
        },
        {
          "internalType": "bytes",
          "name": "_data",
          "type": "bytes"
        }
      ],
      "name": "safeTransferFrom",
      "outputs": [],
      "stateMutability": "nonpayable",
      "type": "function"
    },
    {
      "inputs": [],
      "name": "saleIsActive",
      "outputs": [
        {
          "internalType": "bool",
          "name": "",
          "type": "bool"
        }
      ],
      "stateMutability": "view",
      "type": "function"
    },
    {
      "inputs": [
        {
          "internalType": "address",
          "name": "buyer",
          "type": "address"
        }
      ],
      "name": "saleMintToken",
      "outputs": [],
      "stateMutability": "payable",
      "type": "function"
    },
    {
      "inputs": [
        {
          "internalType": "address",
          "name": "operator",
          "type": "address"
        },
        {
          "internalType": "bool",
          "name": "approved",
          "type": "bool"
        }
      ],
      "name": "setApprovalForAll",
      "outputs": [],
      "stateMutability": "nonpayable",
      "type": "function"
    },
    {
      "inputs": [
        {
          "internalType": "string",
          "name": "newBaseURI",
          "type": "string"
        }
      ],
      "name": "setBaseURI",
      "outputs": [],
      "stateMutability": "nonpayable",
      "type": "function"
    },
    {
      "inputs": [
        {
          "internalType": "address",
          "name": "minter",
          "type": "address"
        }
      ],
      "name": "setMinterApproved",
      "outputs": [],
      "stateMutability": "nonpayable",
      "type": "function"
    },
    {
      "inputs": [
        {
          "internalType": "address",
          "name": "minter",
          "type": "address"
        }
      ],
      "name": "setMinterDisapproved",
      "outputs": [],
      "stateMutability": "nonpayable",
      "type": "function"
    },
    {
      "inputs": [
        {
          "internalType": "uint256",
          "name": "tokenPrice",
          "type": "uint256"
        }
      ],
      "name": "setTokenPrice",
      "outputs": [],
      "stateMutability": "nonpayable",
      "type": "function"
    },
    {
      "inputs": [
        {
          "internalType": "bytes4",
          "name": "interfaceId",
          "type": "bytes4"
        }
      ],
      "name": "supportsInterface",
      "outputs": [
        {
          "internalType": "bool",
          "name": "",
          "type": "bool"
        }
      ],
      "stateMutability": "view",
      "type": "function"
    },
    {
      "inputs": [],
      "name": "symbol",
      "outputs": [
        {
          "internalType": "string",
          "name": "",
          "type": "string"
        }
      ],
      "stateMutability": "view",
      "type": "function"
    },
    {
      "inputs": [
        {
          "internalType": "uint256",
          "name": "index",
          "type": "uint256"
        }
      ],
      "name": "tokenByIndex",
      "outputs": [
        {
          "internalType": "uint256",
          "name": "",
          "type": "uint256"
        }
      ],
      "stateMutability": "view",
      "type": "function"
    },
    {
      "inputs": [
        {
          "internalType": "address",
          "name": "owner",
          "type": "address"
        },
        {
          "internalType": "uint256",
          "name": "index",
          "type": "uint256"
        }
      ],
      "name": "tokenOfOwnerByIndex",
      "outputs": [
        {
          "internalType": "uint256",
          "name": "",
          "type": "uint256"
        }
      ],
      "stateMutability": "view",
      "type": "function"
    },
    {
      "inputs": [
        {
          "internalType": "uint256",
          "name": "tokenId",
          "type": "uint256"
        }
      ],
      "name": "tokenURI",
      "outputs": [
        {
          "internalType": "string",
          "name": "",
          "type": "string"
        }
      ],
      "stateMutability": "view",
      "type": "function"
    },
    {
      "inputs": [
        {
          "internalType": "address",
          "name": "owner",
          "type": "address"
        }
      ],
      "name": "tokensOfOwner",
      "outputs": [
        {
          "internalType": "uint256[]",
          "name": "",
          "type": "uint256[]"
        }
      ],
      "stateMutability": "view",
      "type": "function"
    },
    {
      "inputs": [],
      "name": "totalSupply",
      "outputs": [
        {
          "internalType": "uint256",
          "name": "",
          "type": "uint256"
        }
      ],
      "stateMutability": "view",
      "type": "function"
    },
    {
      "inputs": [
        {
          "internalType": "address",
          "name": "from",
          "type": "address"
        },
        {
          "internalType": "address",
          "name": "to",
          "type": "address"
        },
        {
          "internalType": "uint256",
          "name": "tokenId",
          "type": "uint256"
        }
      ],
      "name": "transferFrom",
      "outputs": [],
      "stateMutability": "nonpayable",
      "type": "function"
    },
    {
      "inputs": [
        {
          "internalType": "address",
          "name": "newOwner",
          "type": "address"
        }
      ],
      "name": "transferOwnership",
      "outputs": [],
      "stateMutability": "nonpayable",
      "type": "function"
    },
    {
      "inputs": [],
      "name": "withdraw",
      "outputs": [],
      "stateMutability": "nonpayable",
      "type": "function"
    }
  ],
  "bytecode": "0x6080604052600e805460ff19166001179055662386f26fc10000600f553480156200002957600080fd5b5060405162002d3138038062002d318339810160408190526200004c91620002e4565b8251839083906200006590600090602085019062000193565b5080516200007b90600190602084019062000193565b5050506200009862000092620000c660201b60201c565b620000ca565b620000a3816200011c565b5050336000908152600d60205260409020805460ff1916600117905550620003f9565b3390565b600a80546001600160a01b038381166001600160a01b0319831681179093556040519116919082907f8be0079c531659141344cd1fd0a4f28419497f9722a3daafe3b4186f6b6457e090600090a35050565b62000126620000c6565b6001600160a01b03166200013962000184565b6001600160a01b0316146200016b5760405162461bcd60e51b8152600401620001629062000371565b60405180910390fd5b80516200018090600b90602084019062000193565b5050565b600a546001600160a01b031690565b828054620001a190620003a6565b90600052602060002090601f016020900481019282620001c5576000855562000210565b82601f10620001e057805160ff191683800117855562000210565b8280016001018555821562000210579182015b8281111562000210578251825591602001919060010190620001f3565b506200021e92915062000222565b5090565b5b808211156200021e576000815560010162000223565b600082601f8301126200024a578081fd5b81516001600160401b0380821115620002675762000267620003e3565b6040516020601f8401601f19168201810183811183821017156200028f576200028f620003e3565b6040528382528584018101871015620002a6578485fd5b8492505b83831015620002c95785830181015182840182015291820191620002aa565b83831115620002da57848185840101525b5095945050505050565b600080600060608486031215620002f9578283fd5b83516001600160401b038082111562000310578485fd5b6200031e8783880162000239565b9450602086015191508082111562000334578384fd5b620003428783880162000239565b9350604086015191508082111562000358578283fd5b50620003678682870162000239565b9150509250925092565b6020808252818101527f4f776e61626c653a2063616c6c6572206973206e6f7420746865206f776e6572604082015260600190565b600281046001821680620003bb57607f821691505b60208210811415620003dd57634e487b7160e01b600052602260045260246000fd5b50919050565b634e487b7160e01b600052604160045260246000fd5b61292880620004096000396000f3fe6080604052600436106101ee5760003560e01c80636352211e1161010d57806395d89b41116100a0578063c634d0321161006f578063c634d03214610544578063c87b56dd14610564578063e985e9c514610584578063eb8d2444146105a4578063f2fde38b146105b9576101ee565b806395d89b41146104dc578063a22cb465146104f1578063a9b3b0c114610511578063b88d4fde14610524576101ee565b8063715018a6116100dc578063715018a6146104655780638462151c1461047a5780638da5cb5b146104a7578063931c8bc4146104bc576101ee565b80636352211e146103f05780636a61e5fc146104105780636c0360eb1461043057806370a0823114610445576101ee565b80632d1f1b91116101855780633ccfd60b116101545780633ccfd60b1461037b57806342842e0e146103905780634f6ccce7146103b057806355f804b3146103d0576101ee565b80632d1f1b91146103115780632f745c591461033157806334918dfd146103515780633b971f9f14610366576101ee565b8063095ea7b3116101c1578063095ea7b31461029a57806312065fe0146102ba57806318160ddd146102dc57806323b872dd146102f1576101ee565b806301538868146101f357806301ffc9a71461021557806306fdde031461024b578063081812fc1461026d575b600080fd5b3480156101ff57600080fd5b5061021361020e366004611f64565b6105d9565b005b34801561022157600080fd5b50610235610230366004611ee1565b61066a565b6040516102429190612099565b60405180910390f35b34801561025757600080fd5b50610260610697565b60405161024291906120a4565b34801561027957600080fd5b5061028d610288366004611f4c565b610729565b6040516102429190612004565b3480156102a657600080fd5b506102136102b5366004611eb8565b61076c565b3480156102c657600080fd5b506102cf6107ff565b60405161024291906127aa565b3480156102e857600080fd5b506102cf610845565b3480156102fd57600080fd5b5061021361030c366004611dca565b61084b565b34801561031d57600080fd5b5061021361032c366004611d7e565b610883565b34801561033d57600080fd5b506102cf61034c366004611eb8565b61091f565b34801561035d57600080fd5b50610213610971565b34801561037257600080fd5b506102cf6109c4565b34801561038757600080fd5b506102136109ca565b34801561039c57600080fd5b506102136103ab366004611dca565b610a7d565b3480156103bc57600080fd5b506102cf6103cb366004611f4c565b610a98565b3480156103dc57600080fd5b506102136103eb366004611f19565b610af3565b3480156103fc57600080fd5b5061028d61040b366004611f4c565b610b49565b34801561041c57600080fd5b5061021361042b366004611f4c565b610b7e565b34801561043c57600080fd5b50610260610bc2565b34801561045157600080fd5b506102cf610460366004611d7e565b610c50565b34801561047157600080fd5b50610213610c94565b34801561048657600080fd5b5061049a610495366004611d7e565b610cdf565b6040516102429190612055565b3480156104b357600080fd5b5061028d610d9d565b3480156104c857600080fd5b506102136104d7366004611d7e565b610dac565b3480156104e857600080fd5b50610260610e44565b3480156104fd57600080fd5b5061021361050c366004611e7e565b610e53565b61021361051f366004611d7e565b610f21565b34801561053057600080fd5b5061021361053f366004611e05565b610fdb565b34801561055057600080fd5b5061021361055f366004611f4c565b61101a565b34801561057057600080fd5b5061026061057f366004611f4c565b6110de565b34801561059057600080fd5b5061023561059f366004611d98565b6111ff565b3480156105b057600080fd5b5061023561122d565b3480156105c557600080fd5b506102136105d4366004611d7e565b611236565b6105e16112a7565b6001600160a01b03166105f2610d9d565b6001600160a01b0316146106215760405162461bcd60e51b815260040161061890612571565b60405180910390fd5b61062a826112ab565b6106465760405162461bcd60e51b815260040161061890612410565b6000828152600c60209081526040909120825161066592840190611c3f565b505050565b60006001600160e01b0319821663780e9d6360e01b148061068f575061068f826112c8565b90505b919050565b6060600080546106a690612830565b80601f01602080910402602001604051908101604052809291908181526020018280546106d290612830565b801561071f5780601f106106f45761010080835404028352916020019161071f565b820191906000526020600020905b81548152906001019060200180831161070257829003601f168201915b5050505050905090565b6000610734826112ab565b6107505760405162461bcd60e51b815260040161061890612525565b506000908152600460205260409020546001600160a01b031690565b600061077782610b49565b9050806001600160a01b0316836001600160a01b031614156107ab5760405162461bcd60e51b815260040161061890612687565b806001600160a01b03166107bd6112a7565b6001600160a01b031614806107d957506107d98161059f6112a7565b6107f55760405162461bcd60e51b815260040161061890612320565b6106658383611308565b60006108096112a7565b6001600160a01b031661081a610d9d565b6001600160a01b0316146108405760405162461bcd60e51b815260040161061890612571565b504790565b60085490565b61085c6108566112a7565b82611376565b6108785760405162461bcd60e51b81526004016106189061270d565b6106658383836113f3565b61088b6112a7565b6001600160a01b031661089c610d9d565b6001600160a01b0316146108c25760405162461bcd60e51b815260040161061890612571565b6001600160a01b0381166000908152600d602052604090205460ff16156108fb5760405162461bcd60e51b8152600401610618906122de565b6001600160a01b03166000908152600d60205260409020805460ff19166001179055565b600061092a83610c50565b82106109485760405162461bcd60e51b8152600401610618906120b7565b506001600160a01b03919091166000908152600660209081526040808320938352929052205490565b6109796112a7565b6001600160a01b031661098a610d9d565b6001600160a01b0316146109b05760405162461bcd60e51b815260040161061890612571565b600e805460ff19811660ff90911615179055565b600f5481565b6109d26112a7565b6001600160a01b03166109e3610d9d565b6001600160a01b031614610a095760405162461bcd60e51b815260040161061890612571565b6040514790339082156108fc029083906000818181858888f19350505050158015610a38573d6000803e3d6000fd5b50610a41610971565b7f340eda84c45ce2835fc1d07babdc92122b7d0c5ebf24b5065984e2d2f38dfbcf8142604051610a729291906127b3565b60405180910390a150565b61066583838360405180602001604052806000815250610fdb565b6000610aa2610845565b8210610ac05760405162461bcd60e51b81526004016106189061275e565b60088281548110610ae157634e487b7160e01b600052603260045260246000fd5b90600052602060002001549050919050565b610afb6112a7565b6001600160a01b0316610b0c610d9d565b6001600160a01b031614610b325760405162461bcd60e51b815260040161061890612571565b8051610b4590600b906020840190611c3f565b5050565b6000818152600260205260408120546001600160a01b03168061068f5760405162461bcd60e51b8152600401610618906123c7565b610b866112a7565b6001600160a01b0316610b97610d9d565b6001600160a01b031614610bbd5760405162461bcd60e51b815260040161061890612571565b600f55565b600b8054610bcf90612830565b80601f0160208091040260200160405190810160405280929190818152602001828054610bfb90612830565b8015610c485780601f10610c1d57610100808354040283529160200191610c48565b820191906000526020600020905b815481529060010190602001808311610c2b57829003601f168201915b505050505081565b60006001600160a01b038216610c785760405162461bcd60e51b81526004016106189061237d565b506001600160a01b031660009081526003602052604090205490565b610c9c6112a7565b6001600160a01b0316610cad610d9d565b6001600160a01b031614610cd35760405162461bcd60e51b815260040161061890612571565b610cdd6000611520565b565b60606000610cec83610c50565b905060008167ffffffffffffffff811115610d1757634e487b7160e01b600052604160045260246000fd5b604051908082528060200260200182016040528015610d40578160200160208202803683370190505b50905060005b82811015610d9557610d58858261091f565b828281518110610d7857634e487b7160e01b600052603260045260246000fd5b602090810291909101015280610d8d8161286b565b915050610d46565b509392505050565b600a546001600160a01b031690565b610db46112a7565b6001600160a01b0316610dc5610d9d565b6001600160a01b031614610deb5760405162461bcd60e51b815260040161061890612571565b6001600160a01b0381166000908152600d602052604090205460ff16610e235760405162461bcd60e51b81526004016106189061224c565b6001600160a01b03166000908152600d60205260409020805460ff19169055565b6060600180546106a690612830565b610e5b6112a7565b6001600160a01b0316826001600160a01b03161415610e8c5760405162461bcd60e51b815260040161061890612215565b8060056000610e996112a7565b6001600160a01b03908116825260208083019390935260409182016000908120918716808252919093529120805460ff191692151592909217909155610edd6112a7565b6001600160a01b03167f17307eab39ab6107e8899845ad3d59bd9653f200f220920489ca2b5937696c3183604051610f159190612099565b60405180910390a35050565b600e5460ff16610f435760405162461bcd60e51b8152600401610618906126c8565b600f54341015610f655760405162461bcd60e51b81526004016106189061263e565b6000610f6f610845565b9050610f8582610f808360016127c1565b611572565b816001600160a01b0316610f97610d9d565b6001600160a01b03167f623b3804fa71d67900d064613da8f94b9617215ee90799290593e1745087ad1834610fcd8560016127c1565b604051610f159291906127b3565b610fec610fe66112a7565b83611376565b6110085760405162461bcd60e51b81526004016106189061270d565b6110148484848461158c565b50505050565b336000908152600d602052604090205460ff166110495760405162461bcd60e51b81526004016106189061245e565b6000611053610845565b905060005b828110156110965761107661106b610d9d565b610f808460016127c1565b816110808161286b565b925050808061108e9061286b565b915050611058565b50336001600160a01b03167f8d1cae437cb441ba14dc7700ad1e868c2fb3c1544f214c0f195fb77a266f8d6983836040516110d29291906127b3565b60405180910390a25050565b60606110e9826112ab565b6111055760405162461bcd60e51b8152600401610618906124d4565b6000828152600c60205260408120805461111e90612830565b80601f016020809104026020016040519081016040528092919081815260200182805461114a90612830565b80156111975780601f1061116c57610100808354040283529160200191611197565b820191906000526020600020905b81548152906001019060200180831161117a57829003601f168201915b5050505050905060006111a86115bf565b90508051600014156111bc57509050610692565b8151156111ee5780826040516020016111d6929190611fd5565b60405160208183030381529060405292505050610692565b6111f7846115ce565b949350505050565b6001600160a01b03918216600090815260056020908152604080832093909416825291909152205460ff1690565b600e5460ff1681565b61123e6112a7565b6001600160a01b031661124f610d9d565b6001600160a01b0316146112755760405162461bcd60e51b815260040161061890612571565b6001600160a01b03811661129b5760405162461bcd60e51b815260040161061890612154565b6112a481611520565b50565b3390565b6000908152600260205260409020546001600160a01b0316151590565b60006001600160e01b031982166380ac58cd60e01b14806112f957506001600160e01b03198216635b5e139f60e01b145b8061068f575061068f82611651565b600081815260046020526040902080546001600160a01b0319166001600160a01b038416908117909155819061133d82610b49565b6001600160a01b03167f8c5be1e5ebec7d5bd14f71427d1e84f3dd0314c0f7b2291e5b200ac8c7c3b92560405160405180910390a45050565b6000611381826112ab565b61139d5760405162461bcd60e51b815260040161061890612292565b60006113a883610b49565b9050806001600160a01b0316846001600160a01b031614806113e35750836001600160a01b03166113d884610729565b6001600160a01b0316145b806111f757506111f781856111ff565b826001600160a01b031661140682610b49565b6001600160a01b03161461142c5760405162461bcd60e51b8152600401610618906125a6565b6001600160a01b0382166114525760405162461bcd60e51b8152600401610618906121d1565b61145d83838361166a565b611468600082611308565b6001600160a01b03831660009081526003602052604081208054600192906114919084906127ed565b90915550506001600160a01b03821660009081526003602052604081208054600192906114bf9084906127c1565b909155505060008181526002602052604080822080546001600160a01b0319166001600160a01b0386811691821790925591518493918716917fddf252ad1be2c89b69c2b068fc378daa952ba7f163c4a11628f55a4df523b3ef91a4505050565b600a80546001600160a01b038381166001600160a01b0319831681179093556040519116919082907f8be0079c531659141344cd1fd0a4f28419497f9722a3daafe3b4186f6b6457e090600090a35050565b610b458282604051806020016040528060008152506116f3565b6115978484846113f3565b6115a384848484611726565b6110145760405162461bcd60e51b815260040161061890612102565b6060600b80546106a690612830565b60606115d9826112ab565b6115f55760405162461bcd60e51b8152600401610618906125ef565b60006115ff6115bf565b9050600081511161161f576040518060200160405280600081525061164a565b8061162984611841565b60405160200161163a929190611fd5565b6040516020818303038152906040525b9392505050565b6001600160e01b031981166301ffc9a760e01b14919050565b611675838383610665565b6001600160a01b0383166116915761168c8161195c565b6116b4565b816001600160a01b0316836001600160a01b0316146116b4576116b483826119a0565b6001600160a01b0382166116d0576116cb81611a3d565b610665565b826001600160a01b0316826001600160a01b031614610665576106658282611b16565b6116fd8383611b5a565b61170a6000848484611726565b6106655760405162461bcd60e51b815260040161061890612102565b600061173a846001600160a01b0316611c39565b1561183657836001600160a01b031663150b7a026117566112a7565b8786866040518563ffffffff1660e01b81526004016117789493929190612018565b602060405180830381600087803b15801561179257600080fd5b505af19250505080156117c2575060408051601f3d908101601f191682019092526117bf91810190611efd565b60015b61181c573d8080156117f0576040519150601f19603f3d011682016040523d82523d6000602084013e6117f5565b606091505b5080516118145760405162461bcd60e51b815260040161061890612102565b805181602001fd5b6001600160e01b031916630a85bd0160e11b1490506111f7565b506001949350505050565b60608161186657506040805180820190915260018152600360fc1b6020820152610692565b8160005b8115611890578061187a8161286b565b91506118899050600a836127d9565b915061186a565b60008167ffffffffffffffff8111156118b957634e487b7160e01b600052604160045260246000fd5b6040519080825280601f01601f1916602001820160405280156118e3576020820181803683370190505b5090505b84156111f7576118f86001836127ed565b9150611905600a86612886565b6119109060306127c1565b60f81b81838151811061193357634e487b7160e01b600052603260045260246000fd5b60200101906001600160f81b031916908160001a905350611955600a866127d9565b94506118e7565b600880546000838152600960205260408120829055600182018355919091527ff3f7a9fe364faab93b216da50a3214154f22a0a2b415b23a84c8169e8b636ee30155565b600060016119ad84610c50565b6119b791906127ed565b600083815260076020526040902054909150808214611a0a576001600160a01b03841660009081526006602090815260408083208584528252808320548484528184208190558352600790915290208190555b5060009182526007602090815260408084208490556001600160a01b039094168352600681528383209183525290812055565b600854600090611a4f906001906127ed565b60008381526009602052604081205460088054939450909284908110611a8557634e487b7160e01b600052603260045260246000fd5b906000526020600020015490508060088381548110611ab457634e487b7160e01b600052603260045260246000fd5b6000918252602080832090910192909255828152600990915260408082208490558582528120556008805480611afa57634e487b7160e01b600052603160045260246000fd5b6001900381819060005260206000200160009055905550505050565b6000611b2183610c50565b6001600160a01b039093166000908152600660209081526040808320868452825280832085905593825260079052919091209190915550565b6001600160a01b038216611b805760405162461bcd60e51b81526004016106189061249f565b611b89816112ab565b15611ba65760405162461bcd60e51b81526004016106189061219a565b611bb26000838361166a565b6001600160a01b0382166000908152600360205260408120805460019290611bdb9084906127c1565b909155505060008181526002602052604080822080546001600160a01b0319166001600160a01b03861690811790915590518392907fddf252ad1be2c89b69c2b068fc378daa952ba7f163c4a11628f55a4df523b3ef908290a45050565b3b151590565b828054611c4b90612830565b90600052602060002090601f016020900481019282611c6d5760008555611cb3565b82601f10611c8657805160ff1916838001178555611cb3565b82800160010185558215611cb3579182015b82811115611cb3578251825591602001919060010190611c98565b50611cbf929150611cc3565b5090565b5b80821115611cbf5760008155600101611cc4565b600067ffffffffffffffff80841115611cf357611cf36128c6565b604051601f8501601f191681016020018281118282101715611d1757611d176128c6565b604052848152915081838501861015611d2f57600080fd5b8484602083013760006020868301015250509392505050565b80356001600160a01b038116811461069257600080fd5b600082601f830112611d6f578081fd5b61164a83833560208501611cd8565b600060208284031215611d8f578081fd5b61164a82611d48565b60008060408385031215611daa578081fd5b611db383611d48565b9150611dc160208401611d48565b90509250929050565b600080600060608486031215611dde578081fd5b611de784611d48565b9250611df560208501611d48565b9150604084013590509250925092565b60008060008060808587031215611e1a578081fd5b611e2385611d48565b9350611e3160208601611d48565b925060408501359150606085013567ffffffffffffffff811115611e53578182fd5b8501601f81018713611e63578182fd5b611e7287823560208401611cd8565b91505092959194509250565b60008060408385031215611e90578182fd5b611e9983611d48565b915060208301358015158114611ead578182fd5b809150509250929050565b60008060408385031215611eca578182fd5b611ed383611d48565b946020939093013593505050565b600060208284031215611ef2578081fd5b813561164a816128dc565b600060208284031215611f0e578081fd5b815161164a816128dc565b600060208284031215611f2a578081fd5b813567ffffffffffffffff811115611f40578182fd5b6111f784828501611d5f565b600060208284031215611f5d578081fd5b5035919050565b60008060408385031215611f76578182fd5b82359150602083013567ffffffffffffffff811115611f93578182fd5b611f9f85828601611d5f565b9150509250929050565b60008151808452611fc1816020860160208601612804565b601f01601f19169290920160200192915050565b60008351611fe7818460208801612804565b835190830190611ffb818360208801612804565b01949350505050565b6001600160a01b0391909116815260200190565b6001600160a01b038581168252841660208201526040810183905260806060820181905260009061204b90830184611fa9565b9695505050505050565b6020808252825182820181905260009190848201906040850190845b8181101561208d57835183529284019291840191600101612071565b50909695505050505050565b901515815260200190565b60006020825261164a6020830184611fa9565b6020808252602b908201527f455243373231456e756d657261626c653a206f776e657220696e646578206f7560408201526a74206f6620626f756e647360a81b606082015260800190565b60208082526032908201527f4552433732313a207472616e7366657220746f206e6f6e20455243373231526560408201527131b2b4bb32b91034b6b83632b6b2b73a32b960711b606082015260800190565b60208082526026908201527f4f776e61626c653a206e6577206f776e657220697320746865207a65726f206160408201526564647265737360d01b606082015260800190565b6020808252601c908201527f4552433732313a20746f6b656e20616c7265616479206d696e74656400000000604082015260600190565b60208082526024908201527f4552433732313a207472616e7366657220746f20746865207a65726f206164646040820152637265737360e01b606082015260800190565b60208082526019908201527f4552433732313a20617070726f766520746f2063616c6c657200000000000000604082015260600190565b60208082526026908201527f61646472657373206d696e746572206e6f7420616c6c6f77656420666f72206d604082015265696e74696e6760d01b606082015260800190565b6020808252602c908201527f4552433732313a206f70657261746f7220717565727920666f72206e6f6e657860408201526b34b9ba32b73a103a37b5b2b760a11b606082015260800190565b60208082526022908201527f61646472657373206d696e74657220616c6c6f77656420666f72206d696e74696040820152616e6760f01b606082015260800190565b60208082526038908201527f4552433732313a20617070726f76652063616c6c6572206973206e6f74206f7760408201527f6e6572206e6f7220617070726f76656420666f7220616c6c0000000000000000606082015260800190565b6020808252602a908201527f4552433732313a2062616c616e636520717565727920666f7220746865207a65604082015269726f206164647265737360b01b606082015260800190565b60208082526029908201527f4552433732313a206f776e657220717565727920666f72206e6f6e657869737460408201526832b73a103a37b5b2b760b91b606082015260800190565b6020808252602e908201527f45524337323155524953746f726167653a2055524920736574206f66206e6f6e60408201526d32bc34b9ba32b73a103a37b5b2b760911b606082015260800190565b60208082526021908201527f596f7520646f6e27742061726520616c6c6f77656420666f72206d696e74696e6040820152606760f81b606082015260800190565b6020808252818101527f4552433732313a206d696e7420746f20746865207a65726f2061646472657373604082015260600190565b60208082526031908201527f45524337323155524953746f726167653a2055524920717565727920666f72206040820152703737b732bc34b9ba32b73a103a37b5b2b760791b606082015260800190565b6020808252602c908201527f4552433732313a20617070726f76656420717565727920666f72206e6f6e657860408201526b34b9ba32b73a103a37b5b2b760a11b606082015260800190565b6020808252818101527f4f776e61626c653a2063616c6c6572206973206e6f7420746865206f776e6572604082015260600190565b60208082526029908201527f4552433732313a207472616e73666572206f6620746f6b656e2074686174206960408201526839903737ba1037bbb760b91b606082015260800190565b6020808252602f908201527f4552433732314d657461646174613a2055524920717565727920666f72206e6f60408201526e3732bc34b9ba32b73a103a37b5b2b760891b606082015260800190565b60208082526029908201527f76616c75652073656e74206e6565647320746f2062652061746c656173742073604082015268616c6520707269636560b81b606082015260800190565b60208082526021908201527f4552433732313a20617070726f76616c20746f2063757272656e74206f776e656040820152603960f91b606082015260800190565b60208082526025908201527f53616c656d696e74206d7573742062652061637469766520746f2062757920546040820152646f6b656e7360d81b606082015260800190565b60208082526031908201527f4552433732313a207472616e736665722063616c6c6572206973206e6f74206f6040820152701ddb995c881b9bdc88185c1c1c9bdd9959607a1b606082015260800190565b6020808252602c908201527f455243373231456e756d657261626c653a20676c6f62616c20696e646578206f60408201526b7574206f6620626f756e647360a01b606082015260800190565b90815260200190565b918252602082015260400190565b600082198211156127d4576127d461289a565b500190565b6000826127e8576127e86128b0565b500490565b6000828210156127ff576127ff61289a565b500390565b60005b8381101561281f578181015183820152602001612807565b838111156110145750506000910152565b60028104600182168061284457607f821691505b6020821081141561286557634e487b7160e01b600052602260045260246000fd5b50919050565b600060001982141561287f5761287f61289a565b5060010190565b600082612895576128956128b0565b500690565b634e487b7160e01b600052601160045260246000fd5b634e487b7160e01b600052601260045260246000fd5b634e487b7160e01b600052604160045260246000fd5b6001600160e01b0319811681146112a457600080fdfea2646970667358221220fd396aa56b7b6b5bf9eaaf409b8157252bce58bb80561802f05c3122597adb5b64736f6c63430008000033",
  "linkReferences": {},
  "deployedLinkReferences": {}
}