{
  "_format": "hh-sol-artifact-1",
  "contractName": "BNBCollection",
  "sourceName": "contracts/BNBCollection.sol",
  "abi": [
    {
      "inputs": [],
      "stateMutability": "nonpayable",
      "type": "constructor"
    },
    {
      "anonymous": false,
      "inputs": [
        {
          "indexed": true,
          "internalType": "address",
          "name": "owner",
          "type": "address"
        },
        {
          "indexed": true,
          "internalType": "address",
          "name": "approved",
          "type": "address"
        },
        {
          "indexed": true,
          "internalType": "uint256",
          "name": "tokenId",
          "type": "uint256"
        }
      ],
      "name": "Approval",
      "type": "event"
    },
    {
      "anonymous": false,
      "inputs": [
        {
          "indexed": true,
          "internalType": "address",
          "name": "owner",
          "type": "address"
        },
        {
          "indexed": true,
          "internalType": "address",
          "name": "operator",
          "type": "address"
        },
        {
          "indexed": false,
          "internalType": "bool",
          "name": "approved",
          "type": "bool"
        }
      ],
      "name": "ApprovalForAll",
      "type": "event"
    },
    {
      "anonymous": false,
      "inputs": [
        {
          "indexed": true,
          "internalType": "address",
          "name": "previousOwner",
          "type": "address"
        },
        {
          "indexed": true,
          "internalType": "address",
          "name": "newOwner",
          "type": "address"
        }
      ],
      "name": "OwnershipTransferred",
      "type": "event"
    },
    {
      "anonymous": false,
      "inputs": [
        {
          "indexed": true,
          "internalType": "address",
          "name": "purchaser",
          "type": "address"
        },
        {
          "indexed": true,
          "internalType": "address",
          "name": "beneficiary",
          "type": "address"
        },
        {
          "indexed": false,
          "internalType": "uint256",
          "name": "value",
          "type": "uint256"
        },
        {
          "indexed": false,
          "internalType": "uint256",
          "name": "idToken",
          "type": "uint256"
        }
      ],
      "name": "TokenPurchase",
      "type": "event"
    },
    {
      "anonymous": false,
      "inputs": [
        {
          "indexed": true,
          "internalType": "address",
          "name": "from",
          "type": "address"
        },
        {
          "indexed": true,
          "internalType": "address",
          "name": "to",
          "type": "address"
        },
        {
          "indexed": true,
          "internalType": "uint256",
          "name": "tokenId",
          "type": "uint256"
        }
      ],
      "name": "Transfer",
      "type": "event"
    },
    {
      "anonymous": false,
      "inputs": [
        {
          "indexed": false,
          "internalType": "uint256",
          "name": "amount",
          "type": "uint256"
        },
        {
          "indexed": false,
          "internalType": "uint256",
          "name": "date",
          "type": "uint256"
        }
      ],
      "name": "WithdrawTime",
      "type": "event"
    },
    {
      "inputs": [],
      "name": "alreadySold",
      "outputs": [
        {
          "internalType": "uint256",
          "name": "",
          "type": "uint256"
        }
      ],
      "stateMutability": "view",
      "type": "function"
    },
    {
      "inputs": [
        {
          "internalType": "address",
          "name": "to",
          "type": "address"
        },
        {
          "internalType": "uint256",
          "name": "tokenId",
          "type": "uint256"
        }
      ],
      "name": "approve",
      "outputs": [],
      "stateMutability": "nonpayable",
      "type": "function"
    },
    {
      "inputs": [
        {
          "internalType": "address",
          "name": "owner",
          "type": "address"
        }
      ],
      "name": "balanceOf",
      "outputs": [
        {
          "internalType": "uint256",
          "name": "",
          "type": "uint256"
        }
      ],
      "stateMutability": "view",
      "type": "function"
    },
    {
      "inputs": [],
      "name": "flipSaleState",
      "outputs": [],
      "stateMutability": "nonpayable",
      "type": "function"
    },
    {
      "inputs": [
        {
          "internalType": "uint256",
          "name": "tokenId",
          "type": "uint256"
        }
      ],
      "name": "getApproved",
      "outputs": [
        {
          "internalType": "address",
          "name": "",
          "type": "address"
        }
      ],
      "stateMutability": "view",
      "type": "function"
    },
    {
      "inputs": [
        {
          "internalType": "address",
          "name": "owner",
          "type": "address"
        },
        {
          "internalType": "address",
          "name": "operator",
          "type": "address"
        }
      ],
      "name": "isApprovedForAll",
      "outputs": [
        {
          "internalType": "bool",
          "name": "",
          "type": "bool"
        }
      ],
      "stateMutability": "view",
      "type": "function"
    },
    {
      "inputs": [],
      "name": "name",
      "outputs": [
        {
          "internalType": "string",
          "name": "",
          "type": "string"
        }
      ],
      "stateMutability": "view",
      "type": "function"
    },
    {
      "inputs": [],
      "name": "onSale",
      "outputs": [
        {
          "internalType": "uint256",
          "name": "",
          "type": "uint256"
        }
      ],
      "stateMutability": "view",
      "type": "function"
    },
    {
      "inputs": [],
      "name": "owner",
      "outputs": [
        {
          "internalType": "address",
          "name": "",
          "type": "address"
        }
      ],
      "stateMutability": "view",
      "type": "function"
    },
    {
      "inputs": [
        {
          "internalType": "uint256",
          "name": "tokenId",
          "type": "uint256"
        }
      ],
      "name": "ownerOf",
      "outputs": [
        {
          "internalType": "address",
          "name": "",
          "type": "address"
        }
      ],
      "stateMutability": "view",
      "type": "function"
    },
    {
      "inputs": [],
      "name": "prepareSale",
      "outputs": [],
      "stateMutability": "nonpayable",
      "type": "function"
    },
    {
      "inputs": [],
      "name": "renounceOwnership",
      "outputs": [],
      "stateMutability": "nonpayable",
      "type": "function"
    },
    {
      "inputs": [
        {
          "internalType": "string",
          "name": "_tokenURI",
          "type": "string"
        }
      ],
      "name": "safeMint",
      "outputs": [],
      "stateMutability": "nonpayable",
      "type": "function"
    },
    {
      "inputs": [
        {
          "internalType": "address",
          "name": "from",
          "type": "address"
        },
        {
          "internalType": "address",
          "name": "to",
          "type": "address"
        },
        {
          "internalType": "uint256",
          "name": "tokenId",
          "type": "uint256"
        }
      ],
      "name": "safeTransferFrom",
      "outputs": [],
      "stateMutability": "nonpayable",
      "type": "function"
    },
    {
      "inputs": [
        {
          "internalType": "address",
          "name": "from",
          "type": "address"
        },
        {
          "internalType": "address",
          "name": "to",
          "type": "address"
        },
        {
          "internalType": "uint256",
          "name": "tokenId",
          "type": "uint256"
        },
        {
          "internalType": "bytes",
          "name": "_data",
          "type": "bytes"
        }
      ],
      "name": "safeTransferFrom",
      "outputs": [],
      "stateMutability": "nonpayable",
      "type": "function"
    },
    {
      "inputs": [],
      "name": "saleIsActive",
      "outputs": [
        {
          "internalType": "bool",
          "name": "",
          "type": "bool"
        }
      ],
      "stateMutability": "view",
      "type": "function"
    },
    {
      "inputs": [
        {
          "internalType": "address",
          "name": "buyer",
          "type": "address"
        }
      ],
      "name": "saleMintToken",
      "outputs": [],
      "stateMutability": "payable",
      "type": "function"
    },
    {
      "inputs": [
        {
          "internalType": "address",
          "name": "operator",
          "type": "address"
        },
        {
          "internalType": "bool",
          "name": "approved",
          "type": "bool"
        }
      ],
      "name": "setApprovalForAll",
      "outputs": [],
      "stateMutability": "nonpayable",
      "type": "function"
    },
    {
      "inputs": [
        {
          "internalType": "bytes4",
          "name": "interfaceId",
          "type": "bytes4"
        }
      ],
      "name": "supportsInterface",
      "outputs": [
        {
          "internalType": "bool",
          "name": "",
          "type": "bool"
        }
      ],
      "stateMutability": "view",
      "type": "function"
    },
    {
      "inputs": [],
      "name": "symbol",
      "outputs": [
        {
          "internalType": "string",
          "name": "",
          "type": "string"
        }
      ],
      "stateMutability": "view",
      "type": "function"
    },
    {
      "inputs": [
        {
          "internalType": "uint256",
          "name": "index",
          "type": "uint256"
        }
      ],
      "name": "tokenByIndex",
      "outputs": [
        {
          "internalType": "uint256",
          "name": "",
          "type": "uint256"
        }
      ],
      "stateMutability": "view",
      "type": "function"
    },
    {
      "inputs": [
        {
          "internalType": "address",
          "name": "owner",
          "type": "address"
        },
        {
          "internalType": "uint256",
          "name": "index",
          "type": "uint256"
        }
      ],
      "name": "tokenOfOwnerByIndex",
      "outputs": [
        {
          "internalType": "uint256",
          "name": "",
          "type": "uint256"
        }
      ],
      "stateMutability": "view",
      "type": "function"
    },
    {
      "inputs": [],
      "name": "tokenPrice",
      "outputs": [
        {
          "internalType": "uint256",
          "name": "",
          "type": "uint256"
        }
      ],
      "stateMutability": "view",
      "type": "function"
    },
    {
      "inputs": [
        {
          "internalType": "uint256",
          "name": "tokenId",
          "type": "uint256"
        }
      ],
      "name": "tokenURI",
      "outputs": [
        {
          "internalType": "string",
          "name": "",
          "type": "string"
        }
      ],
      "stateMutability": "view",
      "type": "function"
    },
    {
      "inputs": [
        {
          "internalType": "uint256",
          "name": "",
          "type": "uint256"
        }
      ],
      "name": "tokenURIs",
      "outputs": [
        {
          "internalType": "string",
          "name": "",
          "type": "string"
        }
      ],
      "stateMutability": "view",
      "type": "function"
    },
    {
      "inputs": [
        {
          "internalType": "address",
          "name": "owner",
          "type": "address"
        }
      ],
      "name": "tokensOfOwner",
      "outputs": [
        {
          "internalType": "uint256[]",
          "name": "",
          "type": "uint256[]"
        }
      ],
      "stateMutability": "view",
      "type": "function"
    },
    {
      "inputs": [],
      "name": "totalSupply",
      "outputs": [
        {
          "internalType": "uint256",
          "name": "",
          "type": "uint256"
        }
      ],
      "stateMutability": "view",
      "type": "function"
    },
    {
      "inputs": [
        {
          "internalType": "address",
          "name": "from",
          "type": "address"
        },
        {
          "internalType": "address",
          "name": "to",
          "type": "address"
        },
        {
          "internalType": "uint256",
          "name": "tokenId",
          "type": "uint256"
        }
      ],
      "name": "transferFrom",
      "outputs": [],
      "stateMutability": "nonpayable",
      "type": "function"
    },
    {
      "inputs": [
        {
          "internalType": "address",
          "name": "newOwner",
          "type": "address"
        }
      ],
      "name": "transferOwnership",
      "outputs": [],
      "stateMutability": "nonpayable",
      "type": "function"
    },
    {
      "inputs": [],
      "name": "withdraw",
      "outputs": [],
      "stateMutability": "nonpayable",
      "type": "function"
    }
  ],
  "bytecode": "0x6080604052670429d069189e00006011553480156200001d57600080fd5b50604080518082018252601881527f4d616c616e66746472696e657220436f6c6c656374696f6e0000000000000000602080830191825283518085019094526005845264135313919560da1b90840152815191929162000080916000916200010f565b508051620000969060019060208401906200010f565b505050620000b3620000ad620000b960201b60201c565b620000bd565b620001f2565b3390565b600a80546001600160a01b038381166001600160a01b0319831681179093556040519116919082907f8be0079c531659141344cd1fd0a4f28419497f9722a3daafe3b4186f6b6457e090600090a35050565b8280546200011d90620001b5565b90600052602060002090601f0160209004810192826200014157600085556200018c565b82601f106200015c57805160ff19168380011785556200018c565b828001600101855582156200018c579182015b828111156200018c5782518255916020019190600101906200016f565b506200019a9291506200019e565b5090565b5b808211156200019a57600081556001016200019f565b600281046001821680620001ca57607f821691505b60208210811415620001ec57634e487b7160e01b600052602260045260246000fd5b50919050565b6123b080620002026000396000f3fe6080604052600436106101cd5760003560e01c8063695850fb116100f757806395d89b4111610095578063c87b56dd11610064578063c87b56dd146104d8578063e985e9c5146104f8578063eb8d244414610518578063f2fde38b1461052d576101cd565b806395d89b4114610470578063a22cb46514610485578063a9b3b0c1146104a5578063b88d4fde146104b8576101cd565b8063715018a6116100d1578063715018a6146104045780637ff9b596146104195780638462151c1461042e5780638da5cb5b1461045b576101cd565b8063695850fb146103a45780636c8b703f146103c457806370a08231146103e4576101cd565b8063326687b91161016f5780634d2db81f1161013e5780634d2db81f1461033a5780634f6ccce71461034f57806350017e5e1461036f5780636352211e14610384576101cd565b8063326687b9146102db57806334918dfd146102f05780633ccfd60b1461030557806342842e0e1461031a576101cd565b8063095ea7b3116101ab578063095ea7b31461025757806318160ddd1461027957806323b872dd1461029b5780632f745c59146102bb576101cd565b806301ffc9a7146101d257806306fdde0314610208578063081812fc1461022a575b600080fd5b3480156101de57600080fd5b506101f26101ed366004611aea565b61054d565b6040516101ff9190611c5d565b60405180910390f35b34801561021457600080fd5b5061021d610560565b6040516101ff9190611c68565b34801561023657600080fd5b5061024a610245366004611b68565b6105f2565b6040516101ff9190611bc8565b34801561026357600080fd5b50610277610272366004611ac1565b61063e565b005b34801561028557600080fd5b5061028e6106d6565b6040516101ff9190612270565b3480156102a757600080fd5b506102776102b63660046119d3565b6106dc565b3480156102c757600080fd5b5061028e6102d6366004611ac1565b610714565b3480156102e757600080fd5b5061028e610766565b3480156102fc57600080fd5b5061027761076c565b34801561031157600080fd5b506102776107bf565b34801561032657600080fd5b506102776103353660046119d3565b610872565b34801561034657600080fd5b5061028e61088d565b34801561035b57600080fd5b5061028e61036a366004611b68565b610893565b34801561037b57600080fd5b506102776108ee565b34801561039057600080fd5b5061024a61039f366004611b68565b610943565b3480156103b057600080fd5b506102776103bf366004611b22565b610978565b3480156103d057600080fd5b5061021d6103df366004611b68565b610a9e565b3480156103f057600080fd5b5061028e6103ff366004611980565b610b4a565b34801561041057600080fd5b50610277610b8e565b34801561042557600080fd5b5061028e610bd9565b34801561043a57600080fd5b5061044e610449366004611980565b610bdf565b6040516101ff9190611c19565b34801561046757600080fd5b5061024a610c9d565b34801561047c57600080fd5b5061021d610cac565b34801561049157600080fd5b506102776104a0366004611a87565b610cbb565b6102776104b3366004611980565b610cd1565b3480156104c457600080fd5b506102776104d3366004611a0e565b610dee565b3480156104e457600080fd5b5061021d6104f3366004611b68565b610e2d565b34801561050457600080fd5b506101f26105133660046119a1565b610ef2565b34801561052457600080fd5b506101f2610f20565b34801561053957600080fd5b50610277610548366004611980565b610f29565b600061055882610f9a565b90505b919050565b60606000805461056f906122e2565b80601f016020809104026020016040519081016040528092919081815260200182805461059b906122e2565b80156105e85780601f106105bd576101008083540402835291602001916105e8565b820191906000526020600020905b8154815290600101906020018083116105cb57829003601f168201915b5050505050905090565b60006105fd82610fbf565b6106225760405162461bcd60e51b815260040161061990611fef565b60405180910390fd5b506000908152600460205260409020546001600160a01b031690565b600061064982610943565b9050806001600160a01b0316836001600160a01b0316141561067d5760405162461bcd60e51b815260040161061990612192565b806001600160a01b031661068f610fdc565b6001600160a01b031614806106ab57506106ab81610513610fdc565b6106c75760405162461bcd60e51b815260040161061990611e93565b6106d18383610fe0565b505050565b60085490565b6106ed6106e7610fdc565b8261104e565b6107095760405162461bcd60e51b8152600401610619906121d3565b6106d18383836110d3565b600061071f83610b4a565b821061073d5760405162461bcd60e51b815260040161061990611c7b565b506001600160a01b03919091166000908152600660209081526040808320938352929052205490565b600f5481565b610774610fdc565b6001600160a01b0316610785610c9d565b6001600160a01b0316146107ab5760405162461bcd60e51b81526004016106199061203b565b6010805460ff19811660ff90911615179055565b6107c7610fdc565b6001600160a01b03166107d8610c9d565b6001600160a01b0316146107fe5760405162461bcd60e51b81526004016106199061203b565b6040514790339082156108fc029083906000818181858888f1935050505015801561082d573d6000803e3d6000fd5b5061083661076c565b7f340eda84c45ce2835fc1d07babdc92122b7d0c5ebf24b5065984e2d2f38dfbcf8142604051610867929190612279565b60405180910390a150565b6106d183838360405180602001604052806000815250610dee565b600e5481565b600061089d6106d6565b82106108bb5760405162461bcd60e51b815260040161061990612224565b600882815481106108dc57634e487b7160e01b600052603260045260246000fd5b90600052602060002001549050919050565b6108f6610fdc565b6001600160a01b0316610907610c9d565b6001600160a01b03161461092d5760405162461bcd60e51b81526004016106199061203b565b600b54600e5461093d908261229f565b600f5550565b6000818152600260205260408120546001600160a01b0316806105585760405162461bcd60e51b815260040161061990611f3a565b610980610fdc565b6001600160a01b0316610991610c9d565b6001600160a01b0316146109b75760405162461bcd60e51b81526004016106199061203b565b600c816040516109c79190611bac565b9081526040519081900360200190205460ff16156109f75760405162461bcd60e51b815260040161061990611e5c565b600b80546001810182556000919091528151610a3a917f0175b7a638427703f0dbe7bb9bbf987a2551717b34e79f33b5b1008d1fa01db901906020840190611860565b50600b546000818152600d602090815260409091208351610a5d92850190611860565b50610a683382611200565b6001600c83604051610a7a9190611bac565b908152604051908190036020019020805491151560ff199092169190911790555050565b600b8181548110610aae57600080fd5b906000526020600020016000915090508054610ac9906122e2565b80601f0160208091040260200160405190810160405280929190818152602001828054610af5906122e2565b8015610b425780601f10610b1757610100808354040283529160200191610b42565b820191906000526020600020905b815481529060010190602001808311610b2557829003601f168201915b505050505081565b60006001600160a01b038216610b725760405162461bcd60e51b815260040161061990611ef0565b506001600160a01b031660009081526003602052604090205490565b610b96610fdc565b6001600160a01b0316610ba7610c9d565b6001600160a01b031614610bcd5760405162461bcd60e51b81526004016106199061203b565b610bd7600061121a565b565b60115481565b60606000610bec83610b4a565b905060008167ffffffffffffffff811115610c1757634e487b7160e01b600052604160045260246000fd5b604051908082528060200260200182016040528015610c40578160200160208202803683370190505b50905060005b82811015610c9557610c588582610714565b828281518110610c7857634e487b7160e01b600052603260045260246000fd5b602090810291909101015280610c8d8161231d565b915050610c46565b509392505050565b600a546001600160a01b031690565b60606001805461056f906122e2565b610ccd610cc6610fdc565b838361126c565b5050565b60105460ff16610cf35760405162461bcd60e51b815260040161061990612070565b600f54610d125760405162461bcd60e51b815260040161061990611f83565b601154341015610d345760405162461bcd60e51b815260040161061990612149565b6000600f54610d416106d6565b610d4b919061229f565b9050610d69610d58610c9d565b83610d64846001612287565b6110d3565b816001600160a01b0316610d7b610c9d565b6001600160a01b03167f623b3804fa71d67900d064613da8f94b9617215ee90799290593e1745087ad1834610db1856001612287565b604051610dbf929190612279565b60405180910390a36001600f54610dd6919061229f565b600f55600e54610de7906001612287565b600e555050565b610dff610df9610fdc565b8361104e565b610e1b5760405162461bcd60e51b8152600401610619906121d3565b610e278484848461130f565b50505050565b6060610e3882610fbf565b610e545760405162461bcd60e51b8152600401610619906120fa565b6000828152600d602052604090208054610e6d906122e2565b80601f0160208091040260200160405190810160405280929190818152602001828054610e99906122e2565b8015610ee65780601f10610ebb57610100808354040283529160200191610ee6565b820191906000526020600020905b815481529060010190602001808311610ec957829003601f168201915b50505050509050919050565b6001600160a01b03918216600090815260056020908152604080832093909416825291909152205460ff1690565b60105460ff1681565b610f31610fdc565b6001600160a01b0316610f42610c9d565b6001600160a01b031614610f685760405162461bcd60e51b81526004016106199061203b565b6001600160a01b038116610f8e5760405162461bcd60e51b815260040161061990611d18565b610f978161121a565b50565b60006001600160e01b0319821663780e9d6360e01b1480610558575061055882611342565b6000908152600260205260409020546001600160a01b0316151590565b3390565b600081815260046020526040902080546001600160a01b0319166001600160a01b038416908117909155819061101582610943565b6001600160a01b03167f8c5be1e5ebec7d5bd14f71427d1e84f3dd0314c0f7b2291e5b200ac8c7c3b92560405160405180910390a45050565b600061105982610fbf565b6110755760405162461bcd60e51b815260040161061990611e10565b600061108083610943565b9050806001600160a01b0316846001600160a01b031614806110bb5750836001600160a01b03166110b0846105f2565b6001600160a01b0316145b806110cb57506110cb8185610ef2565b949350505050565b826001600160a01b03166110e682610943565b6001600160a01b03161461110c5760405162461bcd60e51b8152600401610619906120b1565b6001600160a01b0382166111325760405162461bcd60e51b815260040161061990611d95565b61113d838383611382565b611148600082610fe0565b6001600160a01b038316600090815260036020526040812080546001929061117190849061229f565b90915550506001600160a01b038216600090815260036020526040812080546001929061119f908490612287565b909155505060008181526002602052604080822080546001600160a01b0319166001600160a01b0386811691821790925591518493918716917fddf252ad1be2c89b69c2b068fc378daa952ba7f163c4a11628f55a4df523b3ef91a4505050565b610ccd82826040518060200160405280600081525061138d565b600a80546001600160a01b038381166001600160a01b0319831681179093556040519116919082907f8be0079c531659141344cd1fd0a4f28419497f9722a3daafe3b4186f6b6457e090600090a35050565b816001600160a01b0316836001600160a01b0316141561129e5760405162461bcd60e51b815260040161061990611dd9565b6001600160a01b0383811660008181526005602090815260408083209487168084529490915290819020805460ff1916851515179055517f17307eab39ab6107e8899845ad3d59bd9653f200f220920489ca2b5937696c3190611302908590611c5d565b60405180910390a3505050565b61131a8484846110d3565b611326848484846113c0565b610e275760405162461bcd60e51b815260040161061990611cc6565b60006001600160e01b031982166380ac58cd60e01b148061137357506001600160e01b03198216635b5e139f60e01b145b806105585750610558826114db565b6106d18383836114f4565b611397838361157d565b6113a460008484846113c0565b6106d15760405162461bcd60e51b815260040161061990611cc6565b60006113d4846001600160a01b031661165c565b156114d057836001600160a01b031663150b7a026113f0610fdc565b8786866040518563ffffffff1660e01b81526004016114129493929190611bdc565b602060405180830381600087803b15801561142c57600080fd5b505af192505050801561145c575060408051601f3d908101601f1916820190925261145991810190611b06565b60015b6114b6573d80801561148a576040519150601f19603f3d011682016040523d82523d6000602084013e61148f565b606091505b5080516114ae5760405162461bcd60e51b815260040161061990611cc6565b805181602001fd5b6001600160e01b031916630a85bd0160e11b1490506110cb565b506001949350505050565b6001600160e01b031981166301ffc9a760e01b14919050565b6114ff8383836106d1565b6001600160a01b03831661151b5761151681611662565b61153e565b816001600160a01b0316836001600160a01b03161461153e5761153e83826116a6565b6001600160a01b03821661155a5761155581611743565b6106d1565b826001600160a01b0316826001600160a01b0316146106d1576106d1828261181c565b6001600160a01b0382166115a35760405162461bcd60e51b815260040161061990611fba565b6115ac81610fbf565b156115c95760405162461bcd60e51b815260040161061990611d5e565b6115d560008383611382565b6001600160a01b03821660009081526003602052604081208054600192906115fe908490612287565b909155505060008181526002602052604080822080546001600160a01b0319166001600160a01b03861690811790915590518392907fddf252ad1be2c89b69c2b068fc378daa952ba7f163c4a11628f55a4df523b3ef908290a45050565b3b151590565b600880546000838152600960205260408120829055600182018355919091527ff3f7a9fe364faab93b216da50a3214154f22a0a2b415b23a84c8169e8b636ee30155565b600060016116b384610b4a565b6116bd919061229f565b600083815260076020526040902054909150808214611710576001600160a01b03841660009081526006602090815260408083208584528252808320548484528184208190558352600790915290208190555b5060009182526007602090815260408084208490556001600160a01b039094168352600681528383209183525290812055565b6008546000906117559060019061229f565b6000838152600960205260408120546008805493945090928490811061178b57634e487b7160e01b600052603260045260246000fd5b9060005260206000200154905080600883815481106117ba57634e487b7160e01b600052603260045260246000fd5b600091825260208083209091019290925582815260099091526040808220849055858252812055600880548061180057634e487b7160e01b600052603160045260246000fd5b6001900381819060005260206000200160009055905550505050565b600061182783610b4a565b6001600160a01b039093166000908152600660209081526040808320868452825280832085905593825260079052919091209190915550565b82805461186c906122e2565b90600052602060002090601f01602090048101928261188e57600085556118d4565b82601f106118a757805160ff19168380011785556118d4565b828001600101855582156118d4579182015b828111156118d45782518255916020019190600101906118b9565b506118e09291506118e4565b5090565b5b808211156118e057600081556001016118e5565b600067ffffffffffffffff808411156119145761191461234e565b604051601f8501601f1916810160200182811182821017156119385761193861234e565b60405284815291508183850186101561195057600080fd5b8484602083013760006020868301015250509392505050565b80356001600160a01b038116811461055b57600080fd5b600060208284031215611991578081fd5b61199a82611969565b9392505050565b600080604083850312156119b3578081fd5b6119bc83611969565b91506119ca60208401611969565b90509250929050565b6000806000606084860312156119e7578081fd5b6119f084611969565b92506119fe60208501611969565b9150604084013590509250925092565b60008060008060808587031215611a23578081fd5b611a2c85611969565b9350611a3a60208601611969565b925060408501359150606085013567ffffffffffffffff811115611a5c578182fd5b8501601f81018713611a6c578182fd5b611a7b878235602084016118f9565b91505092959194509250565b60008060408385031215611a99578182fd5b611aa283611969565b915060208301358015158114611ab6578182fd5b809150509250929050565b60008060408385031215611ad3578182fd5b611adc83611969565b946020939093013593505050565b600060208284031215611afb578081fd5b813561199a81612364565b600060208284031215611b17578081fd5b815161199a81612364565b600060208284031215611b33578081fd5b813567ffffffffffffffff811115611b49578182fd5b8201601f81018413611b59578182fd5b6110cb848235602084016118f9565b600060208284031215611b79578081fd5b5035919050565b60008151808452611b988160208601602086016122b6565b601f01601f19169290920160200192915050565b60008251611bbe8184602087016122b6565b9190910192915050565b6001600160a01b0391909116815260200190565b6001600160a01b0385811682528416602082015260408101839052608060608201819052600090611c0f90830184611b80565b9695505050505050565b6020808252825182820181905260009190848201906040850190845b81811015611c5157835183529284019291840191600101611c35565b50909695505050505050565b901515815260200190565b60006020825261199a6020830184611b80565b6020808252602b908201527f455243373231456e756d657261626c653a206f776e657220696e646578206f7560408201526a74206f6620626f756e647360a81b606082015260800190565b60208082526032908201527f4552433732313a207472616e7366657220746f206e6f6e20455243373231526560408201527131b2b4bb32b91034b6b83632b6b2b73a32b960711b606082015260800190565b60208082526026908201527f4f776e61626c653a206e6577206f776e657220697320746865207a65726f206160408201526564647265737360d01b606082015260800190565b6020808252601c908201527f4552433732313a20746f6b656e20616c7265616479206d696e74656400000000604082015260600190565b60208082526024908201527f4552433732313a207472616e7366657220746f20746865207a65726f206164646040820152637265737360e01b606082015260800190565b60208082526019908201527f4552433732313a20617070726f766520746f2063616c6c657200000000000000604082015260600190565b6020808252602c908201527f4552433732313a206f70657261746f7220717565727920666f72206e6f6e657860408201526b34b9ba32b73a103a37b5b2b760a11b606082015260800190565b6020808252601e908201527f54686520746f6b656e205552492073686f756c6420626520756e697175650000604082015260600190565b60208082526038908201527f4552433732313a20617070726f76652063616c6c6572206973206e6f74206f7760408201527f6e6572206e6f7220617070726f76656420666f7220616c6c0000000000000000606082015260800190565b6020808252602a908201527f4552433732313a2062616c616e636520717565727920666f7220746865207a65604082015269726f206164647265737360b01b606082015260800190565b60208082526029908201527f4552433732313a206f776e657220717565727920666f72206e6f6e657869737460408201526832b73a103a37b5b2b760b91b606082015260800190565b6020808252601a908201527f546865726520617265206e6f20746f6b656e7320746f20627579000000000000604082015260600190565b6020808252818101527f4552433732313a206d696e7420746f20746865207a65726f2061646472657373604082015260600190565b6020808252602c908201527f4552433732313a20617070726f76656420717565727920666f72206e6f6e657860408201526b34b9ba32b73a103a37b5b2b760a11b606082015260800190565b6020808252818101527f4f776e61626c653a2063616c6c6572206973206e6f7420746865206f776e6572604082015260600190565b60208082526021908201527f53616c65206d7573742062652061637469766520746f2062757920546f6b656e6040820152607360f81b606082015260800190565b60208082526029908201527f4552433732313a207472616e73666572206f6620746f6b656e2074686174206960408201526839903737ba1037bbb760b91b606082015260800190565b6020808252602f908201527f4552433732314d657461646174613a2055524920717565727920666f72206e6f60408201526e3732bc34b9ba32b73a103a37b5b2b760891b606082015260800190565b60208082526029908201527f76616c75652073656e74206e6565647320746f2062652061746c656173742073604082015268616c6520707269636560b81b606082015260800190565b60208082526021908201527f4552433732313a20617070726f76616c20746f2063757272656e74206f776e656040820152603960f91b606082015260800190565b60208082526031908201527f4552433732313a207472616e736665722063616c6c6572206973206e6f74206f6040820152701ddb995c881b9bdc88185c1c1c9bdd9959607a1b606082015260800190565b6020808252602c908201527f455243373231456e756d657261626c653a20676c6f62616c20696e646578206f60408201526b7574206f6620626f756e647360a01b606082015260800190565b90815260200190565b918252602082015260400190565b6000821982111561229a5761229a612338565b500190565b6000828210156122b1576122b1612338565b500390565b60005b838110156122d15781810151838201526020016122b9565b83811115610e275750506000910152565b6002810460018216806122f657607f821691505b6020821081141561231757634e487b7160e01b600052602260045260246000fd5b50919050565b600060001982141561233157612331612338565b5060010190565b634e487b7160e01b600052601160045260246000fd5b634e487b7160e01b600052604160045260246000fd5b6001600160e01b031981168114610f9757600080fdfea2646970667358221220620f4070f135424777c5243d6d8d88f5742f080eaf5f2226806b7faa51b83c1c64736f6c63430008000033",
  "linkReferences": {},
  "deployedLinkReferences": {}
}