{
  "_format": "hh-sol-artifact-1",
  "contractName": "BNBCollection",
  "sourceName": "contracts/BNBCollection.sol",
  "abi": [
    {
      "inputs": [],
      "stateMutability": "nonpayable",
      "type": "constructor"
    },
    {
      "anonymous": false,
      "inputs": [
        {
          "indexed": true,
          "internalType": "address",
          "name": "owner",
          "type": "address"
        },
        {
          "indexed": true,
          "internalType": "address",
          "name": "approved",
          "type": "address"
        },
        {
          "indexed": true,
          "internalType": "uint256",
          "name": "tokenId",
          "type": "uint256"
        }
      ],
      "name": "Approval",
      "type": "event"
    },
    {
      "anonymous": false,
      "inputs": [
        {
          "indexed": true,
          "internalType": "address",
          "name": "owner",
          "type": "address"
        },
        {
          "indexed": true,
          "internalType": "address",
          "name": "operator",
          "type": "address"
        },
        {
          "indexed": false,
          "internalType": "bool",
          "name": "approved",
          "type": "bool"
        }
      ],
      "name": "ApprovalForAll",
      "type": "event"
    },
    {
      "anonymous": false,
      "inputs": [
        {
          "indexed": true,
          "internalType": "address",
          "name": "minter",
          "type": "address"
        },
        {
          "indexed": false,
          "internalType": "uint256",
          "name": "id",
          "type": "uint256"
        },
        {
          "indexed": false,
          "internalType": "uint256",
          "name": "date",
          "type": "uint256"
        }
      ],
      "name": "Mint",
      "type": "event"
    },
    {
      "anonymous": false,
      "inputs": [
        {
          "indexed": true,
          "internalType": "address",
          "name": "previousOwner",
          "type": "address"
        },
        {
          "indexed": true,
          "internalType": "address",
          "name": "newOwner",
          "type": "address"
        }
      ],
      "name": "OwnershipTransferred",
      "type": "event"
    },
    {
      "anonymous": false,
      "inputs": [
        {
          "indexed": true,
          "internalType": "address",
          "name": "purchaser",
          "type": "address"
        },
        {
          "indexed": true,
          "internalType": "address",
          "name": "beneficiary",
          "type": "address"
        },
        {
          "indexed": false,
          "internalType": "uint256",
          "name": "value",
          "type": "uint256"
        },
        {
          "indexed": false,
          "internalType": "uint256",
          "name": "idToken",
          "type": "uint256"
        }
      ],
      "name": "TokenPurchase",
      "type": "event"
    },
    {
      "anonymous": false,
      "inputs": [
        {
          "indexed": true,
          "internalType": "address",
          "name": "from",
          "type": "address"
        },
        {
          "indexed": true,
          "internalType": "address",
          "name": "to",
          "type": "address"
        },
        {
          "indexed": true,
          "internalType": "uint256",
          "name": "tokenId",
          "type": "uint256"
        }
      ],
      "name": "Transfer",
      "type": "event"
    },
    {
      "anonymous": false,
      "inputs": [
        {
          "indexed": false,
          "internalType": "uint256",
          "name": "amount",
          "type": "uint256"
        },
        {
          "indexed": false,
          "internalType": "uint256",
          "name": "date",
          "type": "uint256"
        }
      ],
      "name": "WithdrawTime",
      "type": "event"
    },
    {
      "inputs": [
        {
          "internalType": "uint256",
          "name": "_tokenId",
          "type": "uint256"
        },
        {
          "internalType": "string",
          "name": "_tokenURI",
          "type": "string"
        }
      ],
      "name": "_setTokenURI",
      "outputs": [],
      "stateMutability": "nonpayable",
      "type": "function"
    },
    {
      "inputs": [],
      "name": "alreadySold",
      "outputs": [
        {
          "internalType": "uint256",
          "name": "",
          "type": "uint256"
        }
      ],
      "stateMutability": "view",
      "type": "function"
    },
    {
      "inputs": [
        {
          "internalType": "address",
          "name": "to",
          "type": "address"
        },
        {
          "internalType": "uint256",
          "name": "tokenId",
          "type": "uint256"
        }
      ],
      "name": "approve",
      "outputs": [],
      "stateMutability": "nonpayable",
      "type": "function"
    },
    {
      "inputs": [
        {
          "internalType": "address",
          "name": "owner",
          "type": "address"
        }
      ],
      "name": "balanceOf",
      "outputs": [
        {
          "internalType": "uint256",
          "name": "",
          "type": "uint256"
        }
      ],
      "stateMutability": "view",
      "type": "function"
    },
    {
      "inputs": [],
      "name": "flipSaleState",
      "outputs": [],
      "stateMutability": "nonpayable",
      "type": "function"
    },
    {
      "inputs": [
        {
          "internalType": "uint256",
          "name": "tokenId",
          "type": "uint256"
        }
      ],
      "name": "getApproved",
      "outputs": [
        {
          "internalType": "address",
          "name": "",
          "type": "address"
        }
      ],
      "stateMutability": "view",
      "type": "function"
    },
    {
      "inputs": [],
      "name": "getBalance",
      "outputs": [
        {
          "internalType": "uint256",
          "name": "",
          "type": "uint256"
        }
      ],
      "stateMutability": "view",
      "type": "function"
    },
    {
      "inputs": [
        {
          "internalType": "address",
          "name": "owner",
          "type": "address"
        },
        {
          "internalType": "address",
          "name": "operator",
          "type": "address"
        }
      ],
      "name": "isApprovedForAll",
      "outputs": [
        {
          "internalType": "bool",
          "name": "",
          "type": "bool"
        }
      ],
      "stateMutability": "view",
      "type": "function"
    },
    {
      "inputs": [],
      "name": "name",
      "outputs": [
        {
          "internalType": "string",
          "name": "",
          "type": "string"
        }
      ],
      "stateMutability": "view",
      "type": "function"
    },
    {
      "inputs": [],
      "name": "onSale",
      "outputs": [
        {
          "internalType": "uint256",
          "name": "",
          "type": "uint256"
        }
      ],
      "stateMutability": "view",
      "type": "function"
    },
    {
      "inputs": [],
      "name": "owner",
      "outputs": [
        {
          "internalType": "address",
          "name": "",
          "type": "address"
        }
      ],
      "stateMutability": "view",
      "type": "function"
    },
    {
      "inputs": [
        {
          "internalType": "uint256",
          "name": "tokenId",
          "type": "uint256"
        }
      ],
      "name": "ownerOf",
      "outputs": [
        {
          "internalType": "address",
          "name": "",
          "type": "address"
        }
      ],
      "stateMutability": "view",
      "type": "function"
    },
    {
      "inputs": [],
      "name": "prepareSale",
      "outputs": [],
      "stateMutability": "nonpayable",
      "type": "function"
    },
    {
      "inputs": [],
      "name": "renounceOwnership",
      "outputs": [],
      "stateMutability": "nonpayable",
      "type": "function"
    },
    {
      "inputs": [
        {
          "internalType": "string",
          "name": "_tokenURI",
          "type": "string"
        }
      ],
      "name": "safeMint",
      "outputs": [],
      "stateMutability": "nonpayable",
      "type": "function"
    },
    {
      "inputs": [
        {
          "internalType": "address",
          "name": "from",
          "type": "address"
        },
        {
          "internalType": "address",
          "name": "to",
          "type": "address"
        },
        {
          "internalType": "uint256",
          "name": "tokenId",
          "type": "uint256"
        }
      ],
      "name": "safeTransferFrom",
      "outputs": [],
      "stateMutability": "nonpayable",
      "type": "function"
    },
    {
      "inputs": [
        {
          "internalType": "address",
          "name": "from",
          "type": "address"
        },
        {
          "internalType": "address",
          "name": "to",
          "type": "address"
        },
        {
          "internalType": "uint256",
          "name": "tokenId",
          "type": "uint256"
        },
        {
          "internalType": "bytes",
          "name": "_data",
          "type": "bytes"
        }
      ],
      "name": "safeTransferFrom",
      "outputs": [],
      "stateMutability": "nonpayable",
      "type": "function"
    },
    {
      "inputs": [],
      "name": "saleIsActive",
      "outputs": [
        {
          "internalType": "bool",
          "name": "",
          "type": "bool"
        }
      ],
      "stateMutability": "view",
      "type": "function"
    },
    {
      "inputs": [
        {
          "internalType": "address",
          "name": "buyer",
          "type": "address"
        }
      ],
      "name": "saleMintToken",
      "outputs": [],
      "stateMutability": "payable",
      "type": "function"
    },
    {
      "inputs": [
        {
          "internalType": "address",
          "name": "operator",
          "type": "address"
        },
        {
          "internalType": "bool",
          "name": "approved",
          "type": "bool"
        }
      ],
      "name": "setApprovalForAll",
      "outputs": [],
      "stateMutability": "nonpayable",
      "type": "function"
    },
    {
      "inputs": [
        {
          "internalType": "address",
          "name": "minter",
          "type": "address"
        }
      ],
      "name": "setMinterApproved",
      "outputs": [],
      "stateMutability": "nonpayable",
      "type": "function"
    },
    {
      "inputs": [
        {
          "internalType": "address",
          "name": "minter",
          "type": "address"
        }
      ],
      "name": "setMinterDisapproved",
      "outputs": [],
      "stateMutability": "nonpayable",
      "type": "function"
    },
    {
      "inputs": [
        {
          "internalType": "uint256",
          "name": "_tokenPrice",
          "type": "uint256"
        }
      ],
      "name": "setTokenPrice",
      "outputs": [],
      "stateMutability": "nonpayable",
      "type": "function"
    },
    {
      "inputs": [
        {
          "internalType": "bytes4",
          "name": "interfaceId",
          "type": "bytes4"
        }
      ],
      "name": "supportsInterface",
      "outputs": [
        {
          "internalType": "bool",
          "name": "",
          "type": "bool"
        }
      ],
      "stateMutability": "view",
      "type": "function"
    },
    {
      "inputs": [],
      "name": "symbol",
      "outputs": [
        {
          "internalType": "string",
          "name": "",
          "type": "string"
        }
      ],
      "stateMutability": "view",
      "type": "function"
    },
    {
      "inputs": [
        {
          "internalType": "uint256",
          "name": "index",
          "type": "uint256"
        }
      ],
      "name": "tokenByIndex",
      "outputs": [
        {
          "internalType": "uint256",
          "name": "",
          "type": "uint256"
        }
      ],
      "stateMutability": "view",
      "type": "function"
    },
    {
      "inputs": [
        {
          "internalType": "address",
          "name": "owner",
          "type": "address"
        },
        {
          "internalType": "uint256",
          "name": "index",
          "type": "uint256"
        }
      ],
      "name": "tokenOfOwnerByIndex",
      "outputs": [
        {
          "internalType": "uint256",
          "name": "",
          "type": "uint256"
        }
      ],
      "stateMutability": "view",
      "type": "function"
    },
    {
      "inputs": [],
      "name": "tokenPrice",
      "outputs": [
        {
          "internalType": "uint256",
          "name": "",
          "type": "uint256"
        }
      ],
      "stateMutability": "view",
      "type": "function"
    },
    {
      "inputs": [
        {
          "internalType": "uint256",
          "name": "tokenId",
          "type": "uint256"
        }
      ],
      "name": "tokenURI",
      "outputs": [
        {
          "internalType": "string",
          "name": "",
          "type": "string"
        }
      ],
      "stateMutability": "view",
      "type": "function"
    },
    {
      "inputs": [
        {
          "internalType": "uint256",
          "name": "",
          "type": "uint256"
        }
      ],
      "name": "tokenURIs",
      "outputs": [
        {
          "internalType": "string",
          "name": "",
          "type": "string"
        }
      ],
      "stateMutability": "view",
      "type": "function"
    },
    {
      "inputs": [
        {
          "internalType": "address",
          "name": "owner",
          "type": "address"
        }
      ],
      "name": "tokensOfOwner",
      "outputs": [
        {
          "internalType": "uint256[]",
          "name": "",
          "type": "uint256[]"
        }
      ],
      "stateMutability": "view",
      "type": "function"
    },
    {
      "inputs": [],
      "name": "totalSupply",
      "outputs": [
        {
          "internalType": "uint256",
          "name": "",
          "type": "uint256"
        }
      ],
      "stateMutability": "view",
      "type": "function"
    },
    {
      "inputs": [
        {
          "internalType": "address",
          "name": "from",
          "type": "address"
        },
        {
          "internalType": "address",
          "name": "to",
          "type": "address"
        },
        {
          "internalType": "uint256",
          "name": "tokenId",
          "type": "uint256"
        }
      ],
      "name": "transferFrom",
      "outputs": [],
      "stateMutability": "nonpayable",
      "type": "function"
    },
    {
      "inputs": [
        {
          "internalType": "address",
          "name": "newOwner",
          "type": "address"
        }
      ],
      "name": "transferOwnership",
      "outputs": [],
      "stateMutability": "nonpayable",
      "type": "function"
    },
    {
      "inputs": [],
      "name": "withdraw",
      "outputs": [],
      "stateMutability": "nonpayable",
      "type": "function"
    }
  ],
  "bytecode": "0x6080604052670429d069189e00006011553480156200001d57600080fd5b50604080518082018252601881527f4d616c616e66746472696e657220436f6c6c656374696f6e0000000000000000602080830191825283518085019094526005845264135313919560da1b908401528151919291620000809160009162000129565b5080516200009690600190602084019062000129565b505050620000b3620000ad620000d360201b60201c565b620000d7565b336000908152600b60205260409020805460ff191660011790556200020c565b3390565b600a80546001600160a01b038381166001600160a01b0319831681179093556040519116919082907f8be0079c531659141344cd1fd0a4f28419497f9722a3daafe3b4186f6b6457e090600090a35050565b8280546200013790620001cf565b90600052602060002090601f0160209004810192826200015b5760008555620001a6565b82601f106200017657805160ff1916838001178555620001a6565b82800160010185558215620001a6579182015b82811115620001a657825182559160200191906001019062000189565b50620001b4929150620001b8565b5090565b5b80821115620001b45760008155600101620001b9565b600181811c90821680620001e457607f821691505b602082108114156200020657634e487b7160e01b600052602260045260246000fd5b50919050565b6125ee806200021c6000396000f3fe6080604052600436106102045760003560e01c80636352211e11610118578063931c8bc4116100a0578063b88d4fde1161006f578063b88d4fde1461059b578063c87b56dd146105bb578063e985e9c5146105db578063eb8d244414610624578063f2fde38b1461063e57600080fd5b8063931c8bc41461053357806395d89b4114610553578063a22cb46514610568578063a9b3b0c11461058857600080fd5b806370a08231116100e757806370a082311461049d578063715018a6146104bd5780637ff9b596146104d25780638462151c146104e85780638da5cb5b1461051557600080fd5b80636352211e1461041d578063695850fb1461043d5780636a61e5fc1461045d5780636c8b703f1461047d57600080fd5b80632d1f1b911161019b5780633ccfd60b1161016a5780633ccfd60b1461039d57806342842e0e146103b25780634d2db81f146103d25780634f6ccce7146103e857806350017e5e1461040857600080fd5b80632d1f1b91146103325780632f745c5914610352578063326687b91461037257806334918dfd1461038857600080fd5b8063095ea7b3116101d7578063095ea7b3146102ba57806312065fe0146102da57806318160ddd146102fd57806323b872dd1461031257600080fd5b8063015388681461020957806301ffc9a71461022b57806306fdde0314610260578063081812fc14610282575b600080fd5b34801561021557600080fd5b506102296102243660046120cb565b61065e565b005b34801561023757600080fd5b5061024b610246366004612128565b610730565b60405190151581526020015b60405180910390f35b34801561026c57600080fd5b5061027561075b565b6040516102579190612192565b34801561028e57600080fd5b506102a261029d3660046121a5565b6107ed565b6040516001600160a01b039091168152602001610257565b3480156102c657600080fd5b506102296102d53660046121da565b610882565b3480156102e657600080fd5b506102ef610993565b604051908152602001610257565b34801561030957600080fd5b506008546102ef565b34801561031e57600080fd5b5061022961032d366004612204565b6109c5565b34801561033e57600080fd5b5061022961034d366004612240565b6109f6565b34801561035e57600080fd5b506102ef61036d3660046121da565b610ab8565b34801561037e57600080fd5b506102ef600f5481565b34801561039457600080fd5b50610229610b4e565b3480156103a957600080fd5b50610229610b8c565b3480156103be57600080fd5b506102296103cd366004612204565b610c29565b3480156103de57600080fd5b506102ef600e5481565b3480156103f457600080fd5b506102ef6104033660046121a5565b610c44565b34801561041457600080fd5b50610229610cd7565b34801561042957600080fd5b506102a26104383660046121a5565b610d1b565b34801561044957600080fd5b5061022961045836600461225b565b610d92565b34801561046957600080fd5b506102296104783660046121a5565b610edc565b34801561048957600080fd5b506102756104983660046121a5565b610f0b565b3480156104a957600080fd5b506102ef6104b8366004612240565b610fb7565b3480156104c957600080fd5b5061022961103e565b3480156104de57600080fd5b506102ef60115481565b3480156104f457600080fd5b50610508610503366004612240565b611074565b6040516102579190612290565b34801561052157600080fd5b50600a546001600160a01b03166102a2565b34801561053f57600080fd5b5061022961054e366004612240565b611116565b34801561055f57600080fd5b506102756111d8565b34801561057457600080fd5b506102296105833660046122d4565b6111e7565b610229610596366004612240565b6111f6565b3480156105a757600080fd5b506102296105b6366004612310565b6113fc565b3480156105c757600080fd5b506102756105d63660046121a5565b611434565b3480156105e757600080fd5b5061024b6105f636600461238c565b6001600160a01b03918216600090815260056020908152604080832093909416825291909152205460ff1690565b34801561063057600080fd5b5060105461024b9060ff1681565b34801561064a57600080fd5b50610229610659366004612240565b611553565b600a546001600160a01b031633146106915760405162461bcd60e51b8152600401610688906123bf565b60405180910390fd5b6000828152600260205260409020546001600160a01b031661070c5760405162461bcd60e51b815260206004820152602e60248201527f45524337323155524953746f726167653a2055524920736574206f66206e6f6e60448201526d32bc34b9ba32b73a103a37b5b2b760911b6064820152608401610688565b6000828152600d60209081526040909120825161072b92840190611f7f565b505050565b60006001600160e01b0319821663780e9d6360e01b14806107555750610755826115ee565b92915050565b60606000805461076a906123f4565b80601f0160208091040260200160405190810160405280929190818152602001828054610796906123f4565b80156107e35780601f106107b8576101008083540402835291602001916107e3565b820191906000526020600020905b8154815290600101906020018083116107c657829003601f168201915b5050505050905090565b6000818152600260205260408120546001600160a01b03166108665760405162461bcd60e51b815260206004820152602c60248201527f4552433732313a20617070726f76656420717565727920666f72206e6f6e657860448201526b34b9ba32b73a103a37b5b2b760a11b6064820152608401610688565b506000908152600460205260409020546001600160a01b031690565b600061088d82610d1b565b9050806001600160a01b0316836001600160a01b031614156108fb5760405162461bcd60e51b815260206004820152602160248201527f4552433732313a20617070726f76616c20746f2063757272656e74206f776e656044820152603960f91b6064820152608401610688565b336001600160a01b0382161480610917575061091781336105f6565b6109895760405162461bcd60e51b815260206004820152603860248201527f4552433732313a20617070726f76652063616c6c6572206973206e6f74206f7760448201527f6e6572206e6f7220617070726f76656420666f7220616c6c00000000000000006064820152608401610688565b61072b838361163e565b600a546000906001600160a01b031633146109c05760405162461bcd60e51b8152600401610688906123bf565b504790565b6109cf33826116ac565b6109eb5760405162461bcd60e51b81526004016106889061242f565b61072b8383836117a3565b600a546001600160a01b03163314610a205760405162461bcd60e51b8152600401610688906123bf565b6001600160a01b0381166000908152600b602052604090205460ff1615610a945760405162461bcd60e51b815260206004820152602260248201527f61646472657373206d696e74657220616c6c6f77656420666f72206d696e74696044820152616e6760f01b6064820152608401610688565b6001600160a01b03166000908152600b60205260409020805460ff19166001179055565b6000610ac383610fb7565b8210610b255760405162461bcd60e51b815260206004820152602b60248201527f455243373231456e756d657261626c653a206f776e657220696e646578206f7560448201526a74206f6620626f756e647360a81b6064820152608401610688565b506001600160a01b03919091166000908152600660209081526040808320938352929052205490565b600a546001600160a01b03163314610b785760405162461bcd60e51b8152600401610688906123bf565b6010805460ff19811660ff90911615179055565b600a546001600160a01b03163314610bb65760405162461bcd60e51b8152600401610688906123bf565b6040514790339082156108fc029083906000818181858888f19350505050158015610be5573d6000803e3d6000fd5b50610bee610b4e565b604080518281524260208201527f340eda84c45ce2835fc1d07babdc92122b7d0c5ebf24b5065984e2d2f38dfbcf910160405180910390a150565b61072b838383604051806020016040528060008152506113fc565b6000610c4f60085490565b8210610cb25760405162461bcd60e51b815260206004820152602c60248201527f455243373231456e756d657261626c653a20676c6f62616c20696e646578206f60448201526b7574206f6620626f756e647360a01b6064820152608401610688565b60088281548110610cc557610cc5612480565b90600052602060002001549050919050565b600a546001600160a01b03163314610d015760405162461bcd60e51b8152600401610688906123bf565b610d166104b8600a546001600160a01b031690565b600f55565b6000818152600260205260408120546001600160a01b0316806107555760405162461bcd60e51b815260206004820152602960248201527f4552433732313a206f776e657220717565727920666f72206e6f6e657869737460448201526832b73a103a37b5b2b760b91b6064820152608401610688565b336000908152600b602052604090205460ff1680610db75750610db433610fb7565b15155b610e0d5760405162461bcd60e51b815260206004820152602160248201527f596f7520646f6e27742061726520616c6c6f77656420666f72206d696e74696e6044820152606760f81b6064820152608401610688565b6000610e1860085490565b600c80546001810182556000919091528351919250610e60917fdf6966c971051c3d54ec59162606531493a51404a002842f56009d7e5cf4a8c7909101906020850190611f7f565b506000610e6e8260016124ac565b6000818152600d602090815260409091208551929350610e92929091860190611f7f565b50610e9d338261194a565b6040805182815242602082015233917f4c209b5fc8ad50758f13e2e1088ba56a560dff690a1c6fef26394f4c03821c4f910160405180910390a2505050565b600a546001600160a01b03163314610f065760405162461bcd60e51b8152600401610688906123bf565b601155565b600c8181548110610f1b57600080fd5b906000526020600020016000915090508054610f36906123f4565b80601f0160208091040260200160405190810160405280929190818152602001828054610f62906123f4565b8015610faf5780601f10610f8457610100808354040283529160200191610faf565b820191906000526020600020905b815481529060010190602001808311610f9257829003601f168201915b505050505081565b60006001600160a01b0382166110225760405162461bcd60e51b815260206004820152602a60248201527f4552433732313a2062616c616e636520717565727920666f7220746865207a65604482015269726f206164647265737360b01b6064820152608401610688565b506001600160a01b031660009081526003602052604090205490565b600a546001600160a01b031633146110685760405162461bcd60e51b8152600401610688906123bf565b6110726000611964565b565b6060600061108183610fb7565b905060008167ffffffffffffffff81111561109e5761109e612018565b6040519080825280602002602001820160405280156110c7578160200160208202803683370190505b50905060005b8281101561110e576110df8582610ab8565b8282815181106110f1576110f1612480565b602090810291909101015280611106816124c4565b9150506110cd565b509392505050565b600a546001600160a01b031633146111405760405162461bcd60e51b8152600401610688906123bf565b6001600160a01b0381166000908152600b602052604090205460ff166111b75760405162461bcd60e51b815260206004820152602660248201527f61646472657373206d696e746572206e6f7420616c6c6f77656420666f72206d604482015265696e74696e6760d01b6064820152608401610688565b6001600160a01b03166000908152600b60205260409020805460ff19169055565b60606001805461076a906123f4565b6111f23383836119b6565b5050565b60105460ff166112525760405162461bcd60e51b815260206004820152602160248201527f53616c65206d7573742062652061637469766520746f2062757920546f6b656e6044820152607360f81b6064820152608401610688565b600f546112a15760405162461bcd60e51b815260206004820152601a60248201527f546865726520617265206e6f20746f6b656e7320746f206275790000000000006044820152606401610688565b6011543410156113055760405162461bcd60e51b815260206004820152602960248201527f76616c75652073656e74206e6565647320746f2062652061746c656173742073604482015268616c6520707269636560b81b6064820152608401610688565b600061131c610503600a546001600160a01b031690565b9050611354611333600a546001600160a01b031690565b838360008151811061134757611347612480565b60200260200101516117a3565b6001600f5461136391906124df565b600f55600e546113749060016124ac565b600e556001600160a01b038216611393600a546001600160a01b031690565b6001600160a01b03167f623b3804fa71d67900d064613da8f94b9617215ee90799290593e1745087ad1834846000815181106113d1576113d1612480565b60200260200101516040516113f0929190918252602082015260400190565b60405180910390a35050565b61140633836116ac565b6114225760405162461bcd60e51b81526004016106889061242f565b61142e84848484611a85565b50505050565b6000818152600260205260409020546060906001600160a01b03166114b55760405162461bcd60e51b815260206004820152603160248201527f45524337323155524953746f726167653a2055524920717565727920666f72206044820152703737b732bc34b9ba32b73a103a37b5b2b760791b6064820152608401610688565b6000828152600d6020526040902080546114ce906123f4565b80601f01602080910402602001604051908101604052809291908181526020018280546114fa906123f4565b80156115475780601f1061151c57610100808354040283529160200191611547565b820191906000526020600020905b81548152906001019060200180831161152a57829003601f168201915b50505050509050919050565b600a546001600160a01b0316331461157d5760405162461bcd60e51b8152600401610688906123bf565b6001600160a01b0381166115e25760405162461bcd60e51b815260206004820152602660248201527f4f776e61626c653a206e6577206f776e657220697320746865207a65726f206160448201526564647265737360d01b6064820152608401610688565b6115eb81611964565b50565b60006001600160e01b031982166380ac58cd60e01b148061161f57506001600160e01b03198216635b5e139f60e01b145b8061075557506301ffc9a760e01b6001600160e01b0319831614610755565b600081815260046020526040902080546001600160a01b0319166001600160a01b038416908117909155819061167382610d1b565b6001600160a01b03167f8c5be1e5ebec7d5bd14f71427d1e84f3dd0314c0f7b2291e5b200ac8c7c3b92560405160405180910390a45050565b6000818152600260205260408120546001600160a01b03166117255760405162461bcd60e51b815260206004820152602c60248201527f4552433732313a206f70657261746f7220717565727920666f72206e6f6e657860448201526b34b9ba32b73a103a37b5b2b760a11b6064820152608401610688565b600061173083610d1b565b9050806001600160a01b0316846001600160a01b0316148061176b5750836001600160a01b0316611760846107ed565b6001600160a01b0316145b8061179b57506001600160a01b0380821660009081526005602090815260408083209388168352929052205460ff165b949350505050565b826001600160a01b03166117b682610d1b565b6001600160a01b03161461181a5760405162461bcd60e51b815260206004820152602560248201527f4552433732313a207472616e736665722066726f6d20696e636f72726563742060448201526437bbb732b960d91b6064820152608401610688565b6001600160a01b03821661187c5760405162461bcd60e51b8152602060048201526024808201527f4552433732313a207472616e7366657220746f20746865207a65726f206164646044820152637265737360e01b6064820152608401610688565b611887838383611ab8565b61189260008261163e565b6001600160a01b03831660009081526003602052604081208054600192906118bb9084906124df565b90915550506001600160a01b03821660009081526003602052604081208054600192906118e99084906124ac565b909155505060008181526002602052604080822080546001600160a01b0319166001600160a01b0386811691821790925591518493918716917fddf252ad1be2c89b69c2b068fc378daa952ba7f163c4a11628f55a4df523b3ef91a4505050565b6111f2828260405180602001604052806000815250611b70565b600a80546001600160a01b038381166001600160a01b0319831681179093556040519116919082907f8be0079c531659141344cd1fd0a4f28419497f9722a3daafe3b4186f6b6457e090600090a35050565b816001600160a01b0316836001600160a01b03161415611a185760405162461bcd60e51b815260206004820152601960248201527f4552433732313a20617070726f766520746f2063616c6c6572000000000000006044820152606401610688565b6001600160a01b03838116600081815260056020908152604080832094871680845294825291829020805460ff191686151590811790915591519182527f17307eab39ab6107e8899845ad3d59bd9653f200f220920489ca2b5937696c31910160405180910390a3505050565b611a908484846117a3565b611a9c84848484611ba3565b61142e5760405162461bcd60e51b8152600401610688906124f6565b6001600160a01b038316611b1357611b0e81600880546000838152600960205260408120829055600182018355919091527ff3f7a9fe364faab93b216da50a3214154f22a0a2b415b23a84c8169e8b636ee30155565b611b36565b816001600160a01b0316836001600160a01b031614611b3657611b368382611ca1565b6001600160a01b038216611b4d5761072b81611d3e565b826001600160a01b0316826001600160a01b03161461072b5761072b8282611ded565b611b7a8383611e31565b611b876000848484611ba3565b61072b5760405162461bcd60e51b8152600401610688906124f6565b60006001600160a01b0384163b15611c9657604051630a85bd0160e11b81526001600160a01b0385169063150b7a0290611be7903390899088908890600401612548565b6020604051808303816000875af1925050508015611c22575060408051601f3d908101601f19168201909252611c1f91810190612585565b60015b611c7c573d808015611c50576040519150601f19603f3d011682016040523d82523d6000602084013e611c55565b606091505b508051611c745760405162461bcd60e51b8152600401610688906124f6565b805181602001fd5b6001600160e01b031916630a85bd0160e11b14905061179b565b506001949350505050565b60006001611cae84610fb7565b611cb891906124df565b600083815260076020526040902054909150808214611d0b576001600160a01b03841660009081526006602090815260408083208584528252808320548484528184208190558352600790915290208190555b5060009182526007602090815260408084208490556001600160a01b039094168352600681528383209183525290812055565b600854600090611d50906001906124df565b60008381526009602052604081205460088054939450909284908110611d7857611d78612480565b906000526020600020015490508060088381548110611d9957611d99612480565b6000918252602080832090910192909255828152600990915260408082208490558582528120556008805480611dd157611dd16125a2565b6001900381819060005260206000200160009055905550505050565b6000611df883610fb7565b6001600160a01b039093166000908152600660209081526040808320868452825280832085905593825260079052919091209190915550565b6001600160a01b038216611e875760405162461bcd60e51b815260206004820181905260248201527f4552433732313a206d696e7420746f20746865207a65726f20616464726573736044820152606401610688565b6000818152600260205260409020546001600160a01b031615611eec5760405162461bcd60e51b815260206004820152601c60248201527f4552433732313a20746f6b656e20616c7265616479206d696e746564000000006044820152606401610688565b611ef860008383611ab8565b6001600160a01b0382166000908152600360205260408120805460019290611f219084906124ac565b909155505060008181526002602052604080822080546001600160a01b0319166001600160a01b03861690811790915590518392907fddf252ad1be2c89b69c2b068fc378daa952ba7f163c4a11628f55a4df523b3ef908290a45050565b828054611f8b906123f4565b90600052602060002090601f016020900481019282611fad5760008555611ff3565b82601f10611fc657805160ff1916838001178555611ff3565b82800160010185558215611ff3579182015b82811115611ff3578251825591602001919060010190611fd8565b50611fff929150612003565b5090565b5b80821115611fff5760008155600101612004565b634e487b7160e01b600052604160045260246000fd5b600067ffffffffffffffff8084111561204957612049612018565b604051601f8501601f19908116603f0116810190828211818310171561207157612071612018565b8160405280935085815286868601111561208a57600080fd5b858560208301376000602087830101525050509392505050565b600082601f8301126120b557600080fd5b6120c48383356020850161202e565b9392505050565b600080604083850312156120de57600080fd5b82359150602083013567ffffffffffffffff8111156120fc57600080fd5b612108858286016120a4565b9150509250929050565b6001600160e01b0319811681146115eb57600080fd5b60006020828403121561213a57600080fd5b81356120c481612112565b6000815180845260005b8181101561216b5760208185018101518683018201520161214f565b8181111561217d576000602083870101525b50601f01601f19169290920160200192915050565b6020815260006120c46020830184612145565b6000602082840312156121b757600080fd5b5035919050565b80356001600160a01b03811681146121d557600080fd5b919050565b600080604083850312156121ed57600080fd5b6121f6836121be565b946020939093013593505050565b60008060006060848603121561221957600080fd5b612222846121be565b9250612230602085016121be565b9150604084013590509250925092565b60006020828403121561225257600080fd5b6120c4826121be565b60006020828403121561226d57600080fd5b813567ffffffffffffffff81111561228457600080fd5b61179b848285016120a4565b6020808252825182820181905260009190848201906040850190845b818110156122c8578351835292840192918401916001016122ac565b50909695505050505050565b600080604083850312156122e757600080fd5b6122f0836121be565b91506020830135801515811461230557600080fd5b809150509250929050565b6000806000806080858703121561232657600080fd5b61232f856121be565b935061233d602086016121be565b925060408501359150606085013567ffffffffffffffff81111561236057600080fd5b8501601f8101871361237157600080fd5b6123808782356020840161202e565b91505092959194509250565b6000806040838503121561239f57600080fd5b6123a8836121be565b91506123b6602084016121be565b90509250929050565b6020808252818101527f4f776e61626c653a2063616c6c6572206973206e6f7420746865206f776e6572604082015260600190565b600181811c9082168061240857607f821691505b6020821081141561242957634e487b7160e01b600052602260045260246000fd5b50919050565b60208082526031908201527f4552433732313a207472616e736665722063616c6c6572206973206e6f74206f6040820152701ddb995c881b9bdc88185c1c1c9bdd9959607a1b606082015260800190565b634e487b7160e01b600052603260045260246000fd5b634e487b7160e01b600052601160045260246000fd5b600082198211156124bf576124bf612496565b500190565b60006000198214156124d8576124d8612496565b5060010190565b6000828210156124f1576124f1612496565b500390565b60208082526032908201527f4552433732313a207472616e7366657220746f206e6f6e20455243373231526560408201527131b2b4bb32b91034b6b83632b6b2b73a32b960711b606082015260800190565b6001600160a01b038581168252841660208201526040810183905260806060820181905260009061257b90830184612145565b9695505050505050565b60006020828403121561259757600080fd5b81516120c481612112565b634e487b7160e01b600052603160045260246000fdfea2646970667358221220d83820a47c1853a279ee30786c34b0bbbd87dc3da9ddf38b82028851b9fe042064736f6c634300080b0033",
  "linkReferences": {},
  "deployedLinkReferences": {}
}